{
  "src/source.sol": {
    "ResidentialLeaseAgreement": {
      "abi": [
        {
          "type": "constructor",
          "inputs": [
            {
              "name": "_landlord",
              "type": "address",
              "internalType": "address"
            },
            {
              "name": "_tenant",
              "type": "address",
              "internalType": "address"
            },
            {
              "name": "_securityDeposit",
              "type": "uint256",
              "internalType": "uint256"
            },
            {
              "name": "_monthlyRent",
              "type": "uint256",
              "internalType": "uint256"
            },
            {
              "name": "_leaseTerm",
              "type": "uint256",
              "internalType": "uint256"
            },
            {
              "name": "_lateFeePerDay",
              "type": "uint256",
              "internalType": "uint256"
            },
            {
              "name": "_earlyTerminationFee",
              "type": "uint256",
              "internalType": "uint256"
            }
          ],
          "stateMutability": "nonpayable"
        },
        {
          "type": "function",
          "name": "applyLateFee",
          "inputs": [],
          "outputs": [],
          "stateMutability": "nonpayable"
        },
        {
          "type": "function",
          "name": "earlyTerminationFee",
          "inputs": [],
          "outputs": [
            {
              "name": "",
              "type": "uint256",
              "internalType": "uint256"
            }
          ],
          "stateMutability": "view"
        },
        {
          "type": "function",
          "name": "landlord",
          "inputs": [],
          "outputs": [
            {
              "name": "",
              "type": "address",
              "internalType": "address"
            }
          ],
          "stateMutability": "view"
        },
        {
          "type": "function",
          "name": "landlordApproveLease",
          "inputs": [],
          "outputs": [],
          "stateMutability": "nonpayable"
        },
        {
          "type": "function",
          "name": "lateFeePerDay",
          "inputs": [],
          "outputs": [
            {
              "name": "",
              "type": "uint256",
              "internalType": "uint256"
            }
          ],
          "stateMutability": "view"
        },
        {
          "type": "function",
          "name": "leaseStartDate",
          "inputs": [],
          "outputs": [
            {
              "name": "",
              "type": "uint256",
              "internalType": "uint256"
            }
          ],
          "stateMutability": "view"
        },
        {
          "type": "function",
          "name": "leaseTerm",
          "inputs": [],
          "outputs": [
            {
              "name": "",
              "type": "uint256",
              "internalType": "uint256"
            }
          ],
          "stateMutability": "view"
        },
        {
          "type": "function",
          "name": "monthlyRent",
          "inputs": [],
          "outputs": [
            {
              "name": "",
              "type": "uint256",
              "internalType": "uint256"
            }
          ],
          "stateMutability": "view"
        },
        {
          "type": "function",
          "name": "payRent",
          "inputs": [],
          "outputs": [],
          "stateMutability": "payable"
        },
        {
          "type": "function",
          "name": "securityDeposit",
          "inputs": [],
          "outputs": [
            {
              "name": "",
              "type": "uint256",
              "internalType": "uint256"
            }
          ],
          "stateMutability": "view"
        },
        {
          "type": "function",
          "name": "status",
          "inputs": [],
          "outputs": [
            {
              "name": "",
              "type": "uint8",
              "internalType": "enum ResidentialLeaseAgreement.Status"
            }
          ],
          "stateMutability": "view"
        },
        {
          "type": "function",
          "name": "tenant",
          "inputs": [],
          "outputs": [
            {
              "name": "",
              "type": "address",
              "internalType": "address"
            }
          ],
          "stateMutability": "view"
        },
        {
          "type": "function",
          "name": "tenantApproveLease",
          "inputs": [],
          "outputs": [],
          "stateMutability": "payable"
        },
        {
          "type": "function",
          "name": "terminateLease",
          "inputs": [],
          "outputs": [],
          "stateMutability": "payable"
        },
        {
          "type": "function",
          "name": "totalRentPaid",
          "inputs": [],
          "outputs": [
            {
              "name": "",
              "type": "uint256",
              "internalType": "uint256"
            }
          ],
          "stateMutability": "view"
        }
      ],
      "userdoc": {},
      "devdoc": {},
      "evm": {
        "bytecode": {
          "object": "61016060405234801561001157600080fd5b50604051610f82380380610f8283398101604081905261003091610088565b6001600160a01b039687166080529490951660a05260c09290925260e0526101005261012091909152610140526002805460ff191690556100ea565b80516001600160a01b038116811461008357600080fd5b919050565b600080600080600080600060e0888a0312156100a357600080fd5b6100ac8861006c565b96506100ba6020890161006c565b604089015160608a015160808b015160a08c015160c0909c01519a9d939c50919a90999198509650945092505050565b60805160a05160c05160e051610100516101205161014051610db96101c9600039600081816101ae01526104e10152600081816101e20152610bbc0152600081816102e701526104220152600081816102b30152818161084301528181610902015281816109e80152610afd015260008181610139015261086401526000818161021e0152818161039a01528181610461015281816104b9015281816105be01528181610751015261094401526000818161027f01528181610368015281816105690152818161062a01528181610a790152610c4f0152610db96000f3fe6080604052600436106100e85760003560e01c806396203dbf1161008a578063dc1997ea11610059578063dc1997ea1461026d578063e4cbecdf146102a1578063e693d624146102d5578063ee0850e41461030957600080fd5b806396203dbf146101d0578063a709c4fe14610204578063adf077911461020c578063d270a1d71461025857600080fd5b80632eeed7d2116100c65780632eeed7d21461016957806330dd03221461017e578063434b0cb5146101945780635c100f831461019c57600080fd5b80631168c9a8146100ed578063200d2ed2146100f7578063220e5ab314610127575b600080fd5b6100f561031f565b005b34801561010357600080fd5b506002546101119060ff1681565b60405161011e9190610cb3565b60405180910390f35b34801561013357600080fd5b5061015b7f000000000000000000000000000000000000000000000000000000000000000081565b60405190815260200161011e565b34801561017557600080fd5b506100f561061f565b34801561018a57600080fd5b5061015b60005481565b6100f5610746565b3480156101a857600080fd5b5061015b7f000000000000000000000000000000000000000000000000000000000000000081565b3480156101dc57600080fd5b5061015b7f000000000000000000000000000000000000000000000000000000000000000081565b6100f5610939565b34801561021857600080fd5b506102407f000000000000000000000000000000000000000000000000000000000000000081565b6040516001600160a01b03909116815260200161011e565b34801561026457600080fd5b506100f5610ac4565b34801561027957600080fd5b506102407f000000000000000000000000000000000000000000000000000000000000000081565b3480156102ad57600080fd5b5061015b7f000000000000000000000000000000000000000000000000000000000000000081565b3480156102e157600080fd5b5061015b7f000000000000000000000000000000000000000000000000000000000000000081565b34801561031557600080fd5b5061015b60015481565b6002805460ff16600381111561033757610337610c9d565b1461035d5760405162461bcd60e51b815260040161035490610cdb565b60405180910390fd5b336001600160a01b037f00000000000000000000000000000000000000000000000000000000000000001614806103bc5750336001600160a01b037f000000000000000000000000000000000000000000000000000000000000000016145b6104205760405162461bcd60e51b815260206004820152602f60248201527f4f6e6c79206c616e646c6f7264206f722074656e616e742063616e207465726d60448201526e696e61746520746865206c6561736560881b6064820152608401610354565b7f000000000000000000000000000000000000000000000000000000000000000060005461044e9190610d1e565b42106104af576040516001600160a01b037f000000000000000000000000000000000000000000000000000000000000000016904780156108fc02916000818181858888f193505050501580156104a9573d6000803e3d6000fd5b50610608565b6001600160a01b037f00000000000000000000000000000000000000000000000000000000000000001633036105b1577f0000000000000000000000000000000000000000000000000000000000000000341461055c5760405162461bcd60e51b815260206004820152602560248201527f54656e616e74206d75737420706179206561726c79207465726d696e6174696f6044820152646e2066656560d81b6064820152608401610354565b6040516001600160a01b037f000000000000000000000000000000000000000000000000000000000000000016904780156108fc02916000818181858888f193505050501580156104a9573d6000803e3d6000fd5b6040516001600160a01b037f000000000000000000000000000000000000000000000000000000000000000016904780156108fc02916000818181858888f19350505050158015610606573d6000803e3d6000fd5b505b600280546003919060ff19166001835b0217905550565b336001600160a01b037f000000000000000000000000000000000000000000000000000000000000000016146106a75760405162461bcd60e51b815260206004820152602760248201527f4f6e6c7920746865206c616e646c6f72642063616e20617070726f766520746860448201526665206c6561736560c81b6064820152608401610354565b600060025460ff1660038111156106c0576106c0610c9d565b146107335760405162461bcd60e51b815260206004820152603760248201527f4c65617365206973206e6f7420696e2074686520636f7272656374207374617460448201527f6520666f72206c616e646c6f726420617070726f76616c0000000000000000006064820152608401610354565b600280546001919060ff19168280610618565b336001600160a01b037f000000000000000000000000000000000000000000000000000000000000000016146107cc5760405162461bcd60e51b815260206004820152602560248201527f4f6e6c79207468652074656e616e742063616e20617070726f766520746865206044820152646c6561736560d81b6064820152608401610354565b600160025460ff1660038111156107e5576107e5610c9d565b1461083e5760405162461bcd60e51b8152602060048201526024808201527f4c65617365206973206e6f742070656e64696e672074656e616e7420617070726044820152631bdd985b60e21b6064820152608401610354565b6108887f00000000000000000000000000000000000000000000000000000000000000007f0000000000000000000000000000000000000000000000000000000000000000610d1e565b34146108fc5760405162461bcd60e51b815260206004820152603b60248201527f54656e616e74206d75737420706179207468652073656375726974792064657060448201527f6f73697420616e64206669727374206d6f6e746827732072656e7400000000006064820152608401610354565b426000557f00000000000000000000000000000000000000000000000000000000000000006001908155600280549091829160ff19169082610618565b336001600160a01b037f000000000000000000000000000000000000000000000000000000000000000016146109b15760405162461bcd60e51b815260206004820152601c60248201527f4f6e6c79207468652074656e616e742063616e207061792072656e74000000006044820152606401610354565b6002805460ff1660038111156109c9576109c9610c9d565b146109e65760405162461bcd60e51b815260040161035490610cdb565b7f00000000000000000000000000000000000000000000000000000000000000003414610a555760405162461bcd60e51b815260206004820152601d60248201527f496e636f72726563742072656e74207061796d656e7420616d6f756e740000006044820152606401610354565b3460016000828254610a679190610d1e565b90915550506040516001600160a01b037f000000000000000000000000000000000000000000000000000000000000000016903480156108fc02916000818181858888f19350505050158015610ac1573d6000803e3d6000fd5b50565b6002805460ff166003811115610adc57610adc610c9d565b14610af95760405162461bcd60e51b815260040161035490610cdb565b60007f0000000000000000000000000000000000000000000000000000000000000000600154610b299190610d37565b610b3490601e610d59565b6201518060005442610b469190610d70565b610b509190610d37565b610b5a9190610d70565b905060038111610bb85760405162461bcd60e51b8152602060048201526024808201527f477261636520706572696f64206f662033206461797320666f72206c617465206044820152631c995b9d60e21b6064820152608401610354565b60007f0000000000000000000000000000000000000000000000000000000000000000610be6600384610d70565b610bf09190610d59565b905080471015610c425760405162461bcd60e51b815260206004820152601f60248201527f496e73756666696369656e742066756e647320666f72206c61746520666565006044820152606401610354565b6040516001600160a01b037f0000000000000000000000000000000000000000000000000000000000000000169082156108fc029083906000818181858888f19350505050158015610c98573d6000803e3d6000fd5b505050565b634e487b7160e01b600052602160045260246000fd5b6020810160048310610cd557634e487b7160e01b600052602160045260246000fd5b91905290565b6020808252601390820152724c65617365206973206e6f742061637469766560681b604082015260600190565b634e487b7160e01b600052601160045260246000fd5b80820180821115610d3157610d31610d08565b92915050565b600082610d5457634e487b7160e01b600052601260045260246000fd5b500490565b8082028115828204841417610d3157610d31610d08565b81810381811115610d3157610d31610d0856fea264697066735822122047aeca422b231a05be759ac6f851e760a756c9e148325f4edc6792e510631a9964736f6c63430008130033",
          "opcodes": "PUSH2 0x160 PUSH1 0x40 MSTORE CALLVALUE DUP1 ISZERO PUSH2 0x11 JUMPI PUSH1 0x0 DUP1 REVERT JUMPDEST POP PUSH1 0x40 MLOAD PUSH2 0xF82 CODESIZE SUB DUP1 PUSH2 0xF82 DUP4 CODECOPY DUP2 ADD PUSH1 0x40 DUP2 SWAP1 MSTORE PUSH2 0x30 SWAP2 PUSH2 0x88 JUMP JUMPDEST PUSH1 0x1 PUSH1 0x1 PUSH1 0xA0 SHL SUB SWAP7 DUP8 AND PUSH1 0x80 MSTORE SWAP5 SWAP1 SWAP6 AND PUSH1 0xA0 MSTORE PUSH1 0xC0 SWAP3 SWAP1 SWAP3 MSTORE PUSH1 0xE0 MSTORE PUSH2 0x100 MSTORE PUSH2 0x120 SWAP2 SWAP1 SWAP2 MSTORE PUSH2 0x140 MSTORE PUSH1 0x2 DUP1 SLOAD PUSH1 0xFF NOT AND SWAP1 SSTORE PUSH2 0xEA JUMP JUMPDEST DUP1 MLOAD PUSH1 0x1 PUSH1 0x1 PUSH1 0xA0 SHL SUB DUP2 AND DUP2 EQ PUSH2 0x83 JUMPI PUSH1 0x0 DUP1 REVERT JUMPDEST SWAP2 SWAP1 POP JUMP JUMPDEST PUSH1 0x0 DUP1 PUSH1 0x0 DUP1 PUSH1 0x0 DUP1 PUSH1 0x0 PUSH1 0xE0 DUP9 DUP11 SUB SLT ISZERO PUSH2 0xA3 JUMPI PUSH1 0x0 DUP1 REVERT JUMPDEST PUSH2 0xAC DUP9 PUSH2 0x6C JUMP JUMPDEST SWAP7 POP PUSH2 0xBA PUSH1 0x20 DUP10 ADD PUSH2 0x6C JUMP JUMPDEST PUSH1 0x40 DUP10 ADD MLOAD PUSH1 0x60 DUP11 ADD MLOAD PUSH1 0x80 DUP12 ADD MLOAD PUSH1 0xA0 DUP13 ADD MLOAD PUSH1 0xC0 SWAP1 SWAP13 ADD MLOAD SWAP11 SWAP14 SWAP4 SWAP13 POP SWAP2 SWAP11 SWAP1 SWAP10 SWAP2 SWAP9 POP SWAP7 POP SWAP5 POP SWAP3 POP POP POP JUMP JUMPDEST PUSH1 0x80 MLOAD PUSH1 0xA0 MLOAD PUSH1 0xC0 MLOAD PUSH1 0xE0 MLOAD PUSH2 0x100 MLOAD PUSH2 0x120 MLOAD PUSH2 0x140 MLOAD PUSH2 0xDB9 PUSH2 0x1C9 PUSH1 0x0 CODECOPY PUSH1 0x0 DUP2 DUP2 PUSH2 0x1AE ADD MSTORE PUSH2 0x4E1 ADD MSTORE PUSH1 0x0 DUP2 DUP2 PUSH2 0x1E2 ADD MSTORE PUSH2 0xBBC ADD MSTORE PUSH1 0x0 DUP2 DUP2 PUSH2 0x2E7 ADD MSTORE PUSH2 0x422 ADD MSTORE PUSH1 0x0 DUP2 DUP2 PUSH2 0x2B3 ADD MSTORE DUP2 DUP2 PUSH2 0x843 ADD MSTORE DUP2 DUP2 PUSH2 0x902 ADD MSTORE DUP2 DUP2 PUSH2 0x9E8 ADD MSTORE PUSH2 0xAFD ADD MSTORE PUSH1 0x0 DUP2 DUP2 PUSH2 0x139 ADD MSTORE PUSH2 0x864 ADD MSTORE PUSH1 0x0 DUP2 DUP2 PUSH2 0x21E ADD MSTORE DUP2 DUP2 PUSH2 0x39A ADD MSTORE DUP2 DUP2 PUSH2 0x461 ADD MSTORE DUP2 DUP2 PUSH2 0x4B9 ADD MSTORE DUP2 DUP2 PUSH2 0x5BE ADD MSTORE DUP2 DUP2 PUSH2 0x751 ADD MSTORE PUSH2 0x944 ADD MSTORE PUSH1 0x0 DUP2 DUP2 PUSH2 0x27F ADD MSTORE DUP2 DUP2 PUSH2 0x368 ADD MSTORE DUP2 DUP2 PUSH2 0x569 ADD MSTORE DUP2 DUP2 PUSH2 0x62A ADD MSTORE DUP2 DUP2 PUSH2 0xA79 ADD MSTORE PUSH2 0xC4F ADD MSTORE PUSH2 0xDB9 PUSH1 0x0 RETURN INVALID PUSH1 0x80 PUSH1 0x40 MSTORE PUSH1 0x4 CALLDATASIZE LT PUSH2 0xE8 JUMPI PUSH1 0x0 CALLDATALOAD PUSH1 0xE0 SHR DUP1 PUSH4 0x96203DBF GT PUSH2 0x8A JUMPI DUP1 PUSH4 0xDC1997EA GT PUSH2 0x59 JUMPI DUP1 PUSH4 0xDC1997EA EQ PUSH2 0x26D JUMPI DUP1 PUSH4 0xE4CBECDF EQ PUSH2 0x2A1 JUMPI DUP1 PUSH4 0xE693D624 EQ PUSH2 0x2D5 JUMPI DUP1 PUSH4 0xEE0850E4 EQ PUSH2 0x309 JUMPI PUSH1 0x0 DUP1 REVERT JUMPDEST DUP1 PUSH4 0x96203DBF EQ PUSH2 0x1D0 JUMPI DUP1 PUSH4 0xA709C4FE EQ PUSH2 0x204 JUMPI DUP1 PUSH4 0xADF07791 EQ PUSH2 0x20C JUMPI DUP1 PUSH4 0xD270A1D7 EQ PUSH2 0x258 JUMPI PUSH1 0x0 DUP1 REVERT JUMPDEST DUP1 PUSH4 0x2EEED7D2 GT PUSH2 0xC6 JUMPI DUP1 PUSH4 0x2EEED7D2 EQ PUSH2 0x169 JUMPI DUP1 PUSH4 0x30DD0322 EQ PUSH2 0x17E JUMPI DUP1 PUSH4 0x434B0CB5 EQ PUSH2 0x194 JUMPI DUP1 PUSH4 0x5C100F83 EQ PUSH2 0x19C JUMPI PUSH1 0x0 DUP1 REVERT JUMPDEST DUP1 PUSH4 0x1168C9A8 EQ PUSH2 0xED JUMPI DUP1 PUSH4 0x200D2ED2 EQ PUSH2 0xF7 JUMPI DUP1 PUSH4 0x220E5AB3 EQ PUSH2 0x127 JUMPI JUMPDEST PUSH1 0x0 DUP1 REVERT JUMPDEST PUSH2 0xF5 PUSH2 0x31F JUMP JUMPDEST STOP JUMPDEST CALLVALUE DUP1 ISZERO PUSH2 0x103 JUMPI PUSH1 0x0 DUP1 REVERT JUMPDEST POP PUSH1 0x2 SLOAD PUSH2 0x111 SWAP1 PUSH1 0xFF AND DUP2 JUMP JUMPDEST PUSH1 0x40 MLOAD PUSH2 0x11E SWAP2 SWAP1 PUSH2 0xCB3 JUMP JUMPDEST PUSH1 0x40 MLOAD DUP1 SWAP2 SUB SWAP1 RETURN JUMPDEST CALLVALUE DUP1 ISZERO PUSH2 0x133 JUMPI PUSH1 0x0 DUP1 REVERT JUMPDEST POP PUSH2 0x15B PUSH32 0x0 DUP2 JUMP JUMPDEST PUSH1 0x40 MLOAD SWAP1 DUP2 MSTORE PUSH1 0x20 ADD PUSH2 0x11E JUMP JUMPDEST CALLVALUE DUP1 ISZERO PUSH2 0x175 JUMPI PUSH1 0x0 DUP1 REVERT JUMPDEST POP PUSH2 0xF5 PUSH2 0x61F JUMP JUMPDEST CALLVALUE DUP1 ISZERO PUSH2 0x18A JUMPI PUSH1 0x0 DUP1 REVERT JUMPDEST POP PUSH2 0x15B PUSH1 0x0 SLOAD DUP2 JUMP JUMPDEST PUSH2 0xF5 PUSH2 0x746 JUMP JUMPDEST CALLVALUE DUP1 ISZERO PUSH2 0x1A8 JUMPI PUSH1 0x0 DUP1 REVERT JUMPDEST POP PUSH2 0x15B PUSH32 0x0 DUP2 JUMP JUMPDEST CALLVALUE DUP1 ISZERO PUSH2 0x1DC JUMPI PUSH1 0x0 DUP1 REVERT JUMPDEST POP PUSH2 0x15B PUSH32 0x0 DUP2 JUMP JUMPDEST PUSH2 0xF5 PUSH2 0x939 JUMP JUMPDEST CALLVALUE DUP1 ISZERO PUSH2 0x218 JUMPI PUSH1 0x0 DUP1 REVERT JUMPDEST POP PUSH2 0x240 PUSH32 0x0 DUP2 JUMP JUMPDEST PUSH1 0x40 MLOAD PUSH1 0x1 PUSH1 0x1 PUSH1 0xA0 SHL SUB SWAP1 SWAP2 AND DUP2 MSTORE PUSH1 0x20 ADD PUSH2 0x11E JUMP JUMPDEST CALLVALUE DUP1 ISZERO PUSH2 0x264 JUMPI PUSH1 0x0 DUP1 REVERT JUMPDEST POP PUSH2 0xF5 PUSH2 0xAC4 JUMP JUMPDEST CALLVALUE DUP1 ISZERO PUSH2 0x279 JUMPI PUSH1 0x0 DUP1 REVERT JUMPDEST POP PUSH2 0x240 PUSH32 0x0 DUP2 JUMP JUMPDEST CALLVALUE DUP1 ISZERO PUSH2 0x2AD JUMPI PUSH1 0x0 DUP1 REVERT JUMPDEST POP PUSH2 0x15B PUSH32 0x0 DUP2 JUMP JUMPDEST CALLVALUE DUP1 ISZERO PUSH2 0x2E1 JUMPI PUSH1 0x0 DUP1 REVERT JUMPDEST POP PUSH2 0x15B PUSH32 0x0 DUP2 JUMP JUMPDEST CALLVALUE DUP1 ISZERO PUSH2 0x315 JUMPI PUSH1 0x0 DUP1 REVERT JUMPDEST POP PUSH2 0x15B PUSH1 0x1 SLOAD DUP2 JUMP JUMPDEST PUSH1 0x2 DUP1 SLOAD PUSH1 0xFF AND PUSH1 0x3 DUP2 GT ISZERO PUSH2 0x337 JUMPI PUSH2 0x337 PUSH2 0xC9D JUMP JUMPDEST EQ PUSH2 0x35D JUMPI PUSH1 0x40 MLOAD PUSH3 0x461BCD PUSH1 0xE5 SHL DUP2 MSTORE PUSH1 0x4 ADD PUSH2 0x354 SWAP1 PUSH2 0xCDB JUMP JUMPDEST PUSH1 0x40 MLOAD DUP1 SWAP2 SUB SWAP1 REVERT JUMPDEST CALLER PUSH1 0x1 PUSH1 0x1 PUSH1 0xA0 SHL SUB PUSH32 0x0 AND EQ DUP1 PUSH2 0x3BC JUMPI POP CALLER PUSH1 0x1 PUSH1 0x1 PUSH1 0xA0 SHL SUB PUSH32 0x0 AND EQ JUMPDEST PUSH2 0x420 JUMPI PUSH1 0x40 MLOAD PUSH3 0x461BCD PUSH1 0xE5 SHL DUP2 MSTORE PUSH1 0x20 PUSH1 0x4 DUP3 ADD MSTORE PUSH1 0x2F PUSH1 0x24 DUP3 ADD MSTORE PUSH32 0x4F6E6C79206C616E646C6F7264206F722074656E616E742063616E207465726D PUSH1 0x44 DUP3 ADD MSTORE PUSH15 0x696E61746520746865206C65617365 PUSH1 0x88 SHL PUSH1 0x64 DUP3 ADD MSTORE PUSH1 0x84 ADD PUSH2 0x354 JUMP JUMPDEST PUSH32 0x0 PUSH1 0x0 SLOAD PUSH2 0x44E SWAP2 SWAP1 PUSH2 0xD1E JUMP JUMPDEST TIMESTAMP LT PUSH2 0x4AF JUMPI PUSH1 0x40 MLOAD PUSH1 0x1 PUSH1 0x1 PUSH1 0xA0 SHL SUB PUSH32 0x0 AND SWAP1 SELFBALANCE DUP1 ISZERO PUSH2 0x8FC MUL SWAP2 PUSH1 0x0 DUP2 DUP2 DUP2 DUP6 DUP9 DUP9 CALL SWAP4 POP POP POP POP ISZERO DUP1 ISZERO PUSH2 0x4A9 JUMPI RETURNDATASIZE PUSH1 0x0 DUP1 RETURNDATACOPY RETURNDATASIZE PUSH1 0x0 REVERT JUMPDEST POP PUSH2 0x608 JUMP JUMPDEST PUSH1 0x1 PUSH1 0x1 PUSH1 0xA0 SHL SUB PUSH32 0x0 AND CALLER SUB PUSH2 0x5B1 JUMPI PUSH32 0x0 CALLVALUE EQ PUSH2 0x55C JUMPI PUSH1 0x40 MLOAD PUSH3 0x461BCD PUSH1 0xE5 SHL DUP2 MSTORE PUSH1 0x20 PUSH1 0x4 DUP3 ADD MSTORE PUSH1 0x25 PUSH1 0x24 DUP3 ADD MSTORE PUSH32 0x54656E616E74206D75737420706179206561726C79207465726D696E6174696F PUSH1 0x44 DUP3 ADD MSTORE PUSH5 0x6E20666565 PUSH1 0xD8 SHL PUSH1 0x64 DUP3 ADD MSTORE PUSH1 0x84 ADD PUSH2 0x354 JUMP JUMPDEST PUSH1 0x40 MLOAD PUSH1 0x1 PUSH1 0x1 PUSH1 0xA0 SHL SUB PUSH32 0x0 AND SWAP1 SELFBALANCE DUP1 ISZERO PUSH2 0x8FC MUL SWAP2 PUSH1 0x0 DUP2 DUP2 DUP2 DUP6 DUP9 DUP9 CALL SWAP4 POP POP POP POP ISZERO DUP1 ISZERO PUSH2 0x4A9 JUMPI RETURNDATASIZE PUSH1 0x0 DUP1 RETURNDATACOPY RETURNDATASIZE PUSH1 0x0 REVERT JUMPDEST PUSH1 0x40 MLOAD PUSH1 0x1 PUSH1 0x1 PUSH1 0xA0 SHL SUB PUSH32 0x0 AND SWAP1 SELFBALANCE DUP1 ISZERO PUSH2 0x8FC MUL SWAP2 PUSH1 0x0 DUP2 DUP2 DUP2 DUP6 DUP9 DUP9 CALL SWAP4 POP POP POP POP ISZERO DUP1 ISZERO PUSH2 0x606 JUMPI RETURNDATASIZE PUSH1 0x0 DUP1 RETURNDATACOPY RETURNDATASIZE PUSH1 0x0 REVERT JUMPDEST POP JUMPDEST PUSH1 0x2 DUP1 SLOAD PUSH1 0x3 SWAP2 SWAP1 PUSH1 0xFF NOT AND PUSH1 0x1 DUP4 JUMPDEST MUL OR SWAP1 SSTORE POP JUMP JUMPDEST CALLER PUSH1 0x1 PUSH1 0x1 PUSH1 0xA0 SHL SUB PUSH32 0x0 AND EQ PUSH2 0x6A7 JUMPI PUSH1 0x40 MLOAD PUSH3 0x461BCD PUSH1 0xE5 SHL DUP2 MSTORE PUSH1 0x20 PUSH1 0x4 DUP3 ADD MSTORE PUSH1 0x27 PUSH1 0x24 DUP3 ADD MSTORE PUSH32 0x4F6E6C7920746865206C616E646C6F72642063616E20617070726F7665207468 PUSH1 0x44 DUP3 ADD MSTORE PUSH7 0x65206C65617365 PUSH1 0xC8 SHL PUSH1 0x64 DUP3 ADD MSTORE PUSH1 0x84 ADD PUSH2 0x354 JUMP JUMPDEST PUSH1 0x0 PUSH1 0x2 SLOAD PUSH1 0xFF AND PUSH1 0x3 DUP2 GT ISZERO PUSH2 0x6C0 JUMPI PUSH2 0x6C0 PUSH2 0xC9D JUMP JUMPDEST EQ PUSH2 0x733 JUMPI PUSH1 0x40 MLOAD PUSH3 0x461BCD PUSH1 0xE5 SHL DUP2 MSTORE PUSH1 0x20 PUSH1 0x4 DUP3 ADD MSTORE PUSH1 0x37 PUSH1 0x24 DUP3 ADD MSTORE PUSH32 0x4C65617365206973206E6F7420696E2074686520636F72726563742073746174 PUSH1 0x44 DUP3 ADD MSTORE PUSH32 0x6520666F72206C616E646C6F726420617070726F76616C000000000000000000 PUSH1 0x64 DUP3 ADD MSTORE PUSH1 0x84 ADD PUSH2 0x354 JUMP JUMPDEST PUSH1 0x2 DUP1 SLOAD PUSH1 0x1 SWAP2 SWAP1 PUSH1 0xFF NOT AND DUP3 DUP1 PUSH2 0x618 JUMP JUMPDEST CALLER PUSH1 0x1 PUSH1 0x1 PUSH1 0xA0 SHL SUB PUSH32 0x0 AND EQ PUSH2 0x7CC JUMPI PUSH1 0x40 MLOAD PUSH3 0x461BCD PUSH1 0xE5 SHL DUP2 MSTORE PUSH1 0x20 PUSH1 0x4 DUP3 ADD MSTORE PUSH1 0x25 PUSH1 0x24 DUP3 ADD MSTORE PUSH32 0x4F6E6C79207468652074656E616E742063616E20617070726F76652074686520 PUSH1 0x44 DUP3 ADD MSTORE PUSH5 0x6C65617365 PUSH1 0xD8 SHL PUSH1 0x64 DUP3 ADD MSTORE PUSH1 0x84 ADD PUSH2 0x354 JUMP JUMPDEST PUSH1 0x1 PUSH1 0x2 SLOAD PUSH1 0xFF AND PUSH1 0x3 DUP2 GT ISZERO PUSH2 0x7E5 JUMPI PUSH2 0x7E5 PUSH2 0xC9D JUMP JUMPDEST EQ PUSH2 0x83E JUMPI PUSH1 0x40 MLOAD PUSH3 0x461BCD PUSH1 0xE5 SHL DUP2 MSTORE PUSH1 0x20 PUSH1 0x4 DUP3 ADD MSTORE PUSH1 0x24 DUP1 DUP3 ADD MSTORE PUSH32 0x4C65617365206973206E6F742070656E64696E672074656E616E742061707072 PUSH1 0x44 DUP3 ADD MSTORE PUSH4 0x1BDD985B PUSH1 0xE2 SHL PUSH1 0x64 DUP3 ADD MSTORE PUSH1 0x84 ADD PUSH2 0x354 JUMP JUMPDEST PUSH2 0x888 PUSH32 0x0 PUSH32 0x0 PUSH2 0xD1E JUMP JUMPDEST CALLVALUE EQ PUSH2 0x8FC JUMPI PUSH1 0x40 MLOAD PUSH3 0x461BCD PUSH1 0xE5 SHL DUP2 MSTORE PUSH1 0x20 PUSH1 0x4 DUP3 ADD MSTORE PUSH1 0x3B PUSH1 0x24 DUP3 ADD MSTORE PUSH32 0x54656E616E74206D757374207061792074686520736563757269747920646570 PUSH1 0x44 DUP3 ADD MSTORE PUSH32 0x6F73697420616E64206669727374206D6F6E746827732072656E740000000000 PUSH1 0x64 DUP3 ADD MSTORE PUSH1 0x84 ADD PUSH2 0x354 JUMP JUMPDEST TIMESTAMP PUSH1 0x0 SSTORE PUSH32 0x0 PUSH1 0x1 SWAP1 DUP2 SSTORE PUSH1 0x2 DUP1 SLOAD SWAP1 SWAP2 DUP3 SWAP2 PUSH1 0xFF NOT AND SWAP1 DUP3 PUSH2 0x618 JUMP JUMPDEST CALLER PUSH1 0x1 PUSH1 0x1 PUSH1 0xA0 SHL SUB PUSH32 0x0 AND EQ PUSH2 0x9B1 JUMPI PUSH1 0x40 MLOAD PUSH3 0x461BCD PUSH1 0xE5 SHL DUP2 MSTORE PUSH1 0x20 PUSH1 0x4 DUP3 ADD MSTORE PUSH1 0x1C PUSH1 0x24 DUP3 ADD MSTORE PUSH32 0x4F6E6C79207468652074656E616E742063616E207061792072656E7400000000 PUSH1 0x44 DUP3 ADD MSTORE PUSH1 0x64 ADD PUSH2 0x354 JUMP JUMPDEST PUSH1 0x2 DUP1 SLOAD PUSH1 0xFF AND PUSH1 0x3 DUP2 GT ISZERO PUSH2 0x9C9 JUMPI PUSH2 0x9C9 PUSH2 0xC9D JUMP JUMPDEST EQ PUSH2 0x9E6 JUMPI PUSH1 0x40 MLOAD PUSH3 0x461BCD PUSH1 0xE5 SHL DUP2 MSTORE PUSH1 0x4 ADD PUSH2 0x354 SWAP1 PUSH2 0xCDB JUMP JUMPDEST PUSH32 0x0 CALLVALUE EQ PUSH2 0xA55 JUMPI PUSH1 0x40 MLOAD PUSH3 0x461BCD PUSH1 0xE5 SHL DUP2 MSTORE PUSH1 0x20 PUSH1 0x4 DUP3 ADD MSTORE PUSH1 0x1D PUSH1 0x24 DUP3 ADD MSTORE PUSH32 0x496E636F72726563742072656E74207061796D656E7420616D6F756E74000000 PUSH1 0x44 DUP3 ADD MSTORE PUSH1 0x64 ADD PUSH2 0x354 JUMP JUMPDEST CALLVALUE PUSH1 0x1 PUSH1 0x0 DUP3 DUP3 SLOAD PUSH2 0xA67 SWAP2 SWAP1 PUSH2 0xD1E JUMP JUMPDEST SWAP1 SWAP2 SSTORE POP POP PUSH1 0x40 MLOAD PUSH1 0x1 PUSH1 0x1 PUSH1 0xA0 SHL SUB PUSH32 0x0 AND SWAP1 CALLVALUE DUP1 ISZERO PUSH2 0x8FC MUL SWAP2 PUSH1 0x0 DUP2 DUP2 DUP2 DUP6 DUP9 DUP9 CALL SWAP4 POP POP POP POP ISZERO DUP1 ISZERO PUSH2 0xAC1 JUMPI RETURNDATASIZE PUSH1 0x0 DUP1 RETURNDATACOPY RETURNDATASIZE PUSH1 0x0 REVERT JUMPDEST POP JUMP JUMPDEST PUSH1 0x2 DUP1 SLOAD PUSH1 0xFF AND PUSH1 0x3 DUP2 GT ISZERO PUSH2 0xADC JUMPI PUSH2 0xADC PUSH2 0xC9D JUMP JUMPDEST EQ PUSH2 0xAF9 JUMPI PUSH1 0x40 MLOAD PUSH3 0x461BCD PUSH1 0xE5 SHL DUP2 MSTORE PUSH1 0x4 ADD PUSH2 0x354 SWAP1 PUSH2 0xCDB JUMP JUMPDEST PUSH1 0x0 PUSH32 0x0 PUSH1 0x1 SLOAD PUSH2 0xB29 SWAP2 SWAP1 PUSH2 0xD37 JUMP JUMPDEST PUSH2 0xB34 SWAP1 PUSH1 0x1E PUSH2 0xD59 JUMP JUMPDEST PUSH3 0x15180 PUSH1 0x0 SLOAD TIMESTAMP PUSH2 0xB46 SWAP2 SWAP1 PUSH2 0xD70 JUMP JUMPDEST PUSH2 0xB50 SWAP2 SWAP1 PUSH2 0xD37 JUMP JUMPDEST PUSH2 0xB5A SWAP2 SWAP1 PUSH2 0xD70 JUMP JUMPDEST SWAP1 POP PUSH1 0x3 DUP2 GT PUSH2 0xBB8 JUMPI PUSH1 0x40 MLOAD PUSH3 0x461BCD PUSH1 0xE5 SHL DUP2 MSTORE PUSH1 0x20 PUSH1 0x4 DUP3 ADD MSTORE PUSH1 0x24 DUP1 DUP3 ADD MSTORE PUSH32 0x477261636520706572696F64206F662033206461797320666F72206C61746520 PUSH1 0x44 DUP3 ADD MSTORE PUSH4 0x1C995B9D PUSH1 0xE2 SHL PUSH1 0x64 DUP3 ADD MSTORE PUSH1 0x84 ADD PUSH2 0x354 JUMP JUMPDEST PUSH1 0x0 PUSH32 0x0 PUSH2 0xBE6 PUSH1 0x3 DUP5 PUSH2 0xD70 JUMP JUMPDEST PUSH2 0xBF0 SWAP2 SWAP1 PUSH2 0xD59 JUMP JUMPDEST SWAP1 POP DUP1 SELFBALANCE LT ISZERO PUSH2 0xC42 JUMPI PUSH1 0x40 MLOAD PUSH3 0x461BCD PUSH1 0xE5 SHL DUP2 MSTORE PUSH1 0x20 PUSH1 0x4 DUP3 ADD MSTORE PUSH1 0x1F PUSH1 0x24 DUP3 ADD MSTORE PUSH32 0x496E73756666696369656E742066756E647320666F72206C6174652066656500 PUSH1 0x44 DUP3 ADD MSTORE PUSH1 0x64 ADD PUSH2 0x354 JUMP JUMPDEST PUSH1 0x40 MLOAD PUSH1 0x1 PUSH1 0x1 PUSH1 0xA0 SHL SUB PUSH32 0x0 AND SWAP1 DUP3 ISZERO PUSH2 0x8FC MUL SWAP1 DUP4 SWAP1 PUSH1 0x0 DUP2 DUP2 DUP2 DUP6 DUP9 DUP9 CALL SWAP4 POP POP POP POP ISZERO DUP1 ISZERO PUSH2 0xC98 JUMPI RETURNDATASIZE PUSH1 0x0 DUP1 RETURNDATACOPY RETURNDATASIZE PUSH1 0x0 REVERT JUMPDEST POP POP POP JUMP JUMPDEST PUSH4 0x4E487B71 PUSH1 0xE0 SHL PUSH1 0x0 MSTORE PUSH1 0x21 PUSH1 0x4 MSTORE PUSH1 0x24 PUSH1 0x0 REVERT JUMPDEST PUSH1 0x20 DUP2 ADD PUSH1 0x4 DUP4 LT PUSH2 0xCD5 JUMPI PUSH4 0x4E487B71 PUSH1 0xE0 SHL PUSH1 0x0 MSTORE PUSH1 0x21 PUSH1 0x4 MSTORE PUSH1 0x24 PUSH1 0x0 REVERT JUMPDEST SWAP2 SWAP1 MSTORE SWAP1 JUMP JUMPDEST PUSH1 0x20 DUP1 DUP3 MSTORE PUSH1 0x13 SWAP1 DUP3 ADD MSTORE PUSH19 0x4C65617365206973206E6F7420616374697665 PUSH1 0x68 SHL PUSH1 0x40 DUP3 ADD MSTORE PUSH1 0x60 ADD SWAP1 JUMP JUMPDEST PUSH4 0x4E487B71 PUSH1 0xE0 SHL PUSH1 0x0 MSTORE PUSH1 0x11 PUSH1 0x4 MSTORE PUSH1 0x24 PUSH1 0x0 REVERT JUMPDEST DUP1 DUP3 ADD DUP1 DUP3 GT ISZERO PUSH2 0xD31 JUMPI PUSH2 0xD31 PUSH2 0xD08 JUMP JUMPDEST SWAP3 SWAP2 POP POP JUMP JUMPDEST PUSH1 0x0 DUP3 PUSH2 0xD54 JUMPI PUSH4 0x4E487B71 PUSH1 0xE0 SHL PUSH1 0x0 MSTORE PUSH1 0x12 PUSH1 0x4 MSTORE PUSH1 0x24 PUSH1 0x0 REVERT JUMPDEST POP DIV SWAP1 JUMP JUMPDEST DUP1 DUP3 MUL DUP2 ISZERO DUP3 DUP3 DIV DUP5 EQ OR PUSH2 0xD31 JUMPI PUSH2 0xD31 PUSH2 0xD08 JUMP JUMPDEST DUP2 DUP2 SUB DUP2 DUP2 GT ISZERO PUSH2 0xD31 JUMPI PUSH2 0xD31 PUSH2 0xD08 JUMP INVALID LOG2 PUSH5 0x6970667358 0x22 SLT KECCAK256 SELFBALANCE 0xAE 0xCA TIMESTAMP 0x2B 0x23 BYTE SDIV 0xBE PUSH22 0x9AC6F851E760A756C9E148325F4EDC6792E510631A99 PUSH5 0x736F6C6343 STOP ADDMOD SGT STOP CALLER ",
          "linkReferences": {}
        },
        "methodIdentifiers": {
          "applyLateFee()": "d270a1d7",
          "earlyTerminationFee()": "5c100f83",
          "landlord()": "dc1997ea",
          "landlordApproveLease()": "2eeed7d2",
          "lateFeePerDay()": "96203dbf",
          "leaseStartDate()": "30dd0322",
          "leaseTerm()": "e693d624",
          "monthlyRent()": "e4cbecdf",
          "payRent()": "a709c4fe",
          "securityDeposit()": "220e5ab3",
          "status()": "200d2ed2",
          "tenant()": "adf07791",
          "tenantApproveLease()": "434b0cb5",
          "terminateLease()": "1168c9a8",
          "totalRentPaid()": "ee0850e4"
        }
      }
    }
  }
}