{
  "src/ResidentialLeaseAgreement.sol": {
    "ResidentialLeaseAgreement": {
      "abi": [
        {
          "type": "constructor",
          "inputs": [
            {
              "name": "_landlord",
              "type": "address",
              "internalType": "address"
            },
            {
              "name": "_tenant",
              "type": "address",
              "internalType": "address"
            },
            {
              "name": "_downPayment",
              "type": "uint256",
              "internalType": "uint256"
            },
            {
              "name": "_monthlyRent",
              "type": "uint256",
              "internalType": "uint256"
            },
            {
              "name": "_rentalPeriod",
              "type": "uint256",
              "internalType": "uint256"
            },
            {
              "name": "_penaltyInterestRate",
              "type": "uint256",
              "internalType": "uint256"
            },
            {
              "name": "_compensation",
              "type": "uint256",
              "internalType": "uint256"
            }
          ],
          "stateMutability": "nonpayable"
        },
        {
          "type": "function",
          "name": "acceptContractAndStartRental",
          "inputs": [],
          "outputs": [],
          "stateMutability": "payable"
        },
        {
          "type": "function",
          "name": "acceptContractLandLord",
          "inputs": [],
          "outputs": [],
          "stateMutability": "nonpayable"
        },
        {
          "type": "function",
          "name": "compensation",
          "inputs": [],
          "outputs": [
            {
              "name": "",
              "type": "uint256",
              "internalType": "uint256"
            }
          ],
          "stateMutability": "view"
        },
        {
          "type": "function",
          "name": "downPayment",
          "inputs": [],
          "outputs": [
            {
              "name": "",
              "type": "uint256",
              "internalType": "uint256"
            }
          ],
          "stateMutability": "view"
        },
        {
          "type": "function",
          "name": "landlord",
          "inputs": [],
          "outputs": [
            {
              "name": "",
              "type": "address",
              "internalType": "address"
            }
          ],
          "stateMutability": "view"
        },
        {
          "type": "function",
          "name": "liquidateDeposit",
          "inputs": [],
          "outputs": [],
          "stateMutability": "nonpayable"
        },
        {
          "type": "function",
          "name": "monthlyRent",
          "inputs": [],
          "outputs": [
            {
              "name": "",
              "type": "uint256",
              "internalType": "uint256"
            }
          ],
          "stateMutability": "view"
        },
        {
          "type": "function",
          "name": "payRent",
          "inputs": [],
          "outputs": [],
          "stateMutability": "payable"
        },
        {
          "type": "function",
          "name": "penaltyInterestRate",
          "inputs": [],
          "outputs": [
            {
              "name": "",
              "type": "uint256",
              "internalType": "uint256"
            }
          ],
          "stateMutability": "view"
        },
        {
          "type": "function",
          "name": "rentalPeriod",
          "inputs": [],
          "outputs": [
            {
              "name": "",
              "type": "uint256",
              "internalType": "uint256"
            }
          ],
          "stateMutability": "view"
        },
        {
          "type": "function",
          "name": "startDate",
          "inputs": [],
          "outputs": [
            {
              "name": "",
              "type": "uint256",
              "internalType": "uint256"
            }
          ],
          "stateMutability": "view"
        },
        {
          "type": "function",
          "name": "status",
          "inputs": [],
          "outputs": [
            {
              "name": "",
              "type": "uint8",
              "internalType": "enum ResidentialLeaseAgreement.Status"
            }
          ],
          "stateMutability": "view"
        },
        {
          "type": "function",
          "name": "tenant",
          "inputs": [],
          "outputs": [
            {
              "name": "",
              "type": "address",
              "internalType": "address"
            }
          ],
          "stateMutability": "view"
        },
        {
          "type": "function",
          "name": "terminateContract",
          "inputs": [],
          "outputs": [],
          "stateMutability": "payable"
        },
        {
          "type": "function",
          "name": "totalPayed",
          "inputs": [],
          "outputs": [
            {
              "name": "",
              "type": "uint256",
              "internalType": "uint256"
            }
          ],
          "stateMutability": "view"
        }
      ],
      "userdoc": {},
      "devdoc": {},
      "evm": {
        "bytecode": {
          "object": "61016060405234801561001157600080fd5b506040516110863803806110868339810160408190526100309161007e565b6001600160a01b039687166080529490951660a05260c09290925260e0526101005261012091909152610140526100e0565b80516001600160a01b038116811461007957600080fd5b919050565b600080600080600080600060e0888a03121561009957600080fd5b6100a288610062565b96506100b060208901610062565b604089015160608a015160808b015160a08c015160c0909c01519a9d939c50919a90999198509650945092505050565b60805160a05160c05160e051610100516101205161014051610e9d6101e960003960008181610159015261054501526000818161018d015261070001526000818161021f015261035b0152600081816102f901528181610659015281816107210152818161099701528181610a2201528181610aa901528181610b0e01528181610c360152610d1f0152600081816101c101528181610a010152610c5701526000818161025b015281816103a9015281816103ff015281816104c2015281816105bf015281816109280152610bc40152600081816102c501528181610431015281816104f5015281816107930152818161085d01528181610aeb0152610cfc0152610e9d6000f3fe6080604052600436106100e85760003560e01c80637b1cf2911161008a578063b3bb666411610059578063b3bb666414610295578063bc5791031461029d578063dc1997ea146102b3578063e4cbecdf146102e757600080fd5b80637b1cf291146101f85780638c4b84751461020d578063a709c4fe14610241578063adf077911461024957600080fd5b806340d5ff58116100c657806340d5ff581461014757806356d886311461017b57806356f50473146101af57806375927705146101e357600080fd5b80630b97bc86146100ed578063200d2ed2146101165780632fd949ca1461013d575b600080fd5b3480156100f957600080fd5b5061010360005481565b6040519081526020015b60405180910390f35b34801561012257600080fd5b506002546101309060ff1681565b60405161010d9190610d8d565b61014561031b565b005b34801561015357600080fd5b506101037f000000000000000000000000000000000000000000000000000000000000000081565b34801561018757600080fd5b506101037f000000000000000000000000000000000000000000000000000000000000000081565b3480156101bb57600080fd5b506101037f000000000000000000000000000000000000000000000000000000000000000081565b3480156101ef57600080fd5b50610145610620565b34801561020457600080fd5b506101456107e2565b34801561021957600080fd5b506101037f000000000000000000000000000000000000000000000000000000000000000081565b6101456108e8565b34801561025557600080fd5b5061027d7f000000000000000000000000000000000000000000000000000000000000000081565b6040516001600160a01b03909116815260200161010d565b610145610b53565b3480156102a957600080fd5b5061010360015481565b3480156102bf57600080fd5b5061027d7f000000000000000000000000000000000000000000000000000000000000000081565b3480156102f357600080fd5b506101037f000000000000000000000000000000000000000000000000000000000000000081565b6002805460ff16600381111561033357610333610d77565b146103595760405162461bcd60e51b815260040161035090610db5565b60405180910390fd5b7f00000000000000000000000000000000000000000000000000000000000000006000546103879190610e02565b42106103f45760028054600360ff199091161790556040516001600160a01b037f000000000000000000000000000000000000000000000000000000000000000016904780156108fc02916000818181858888f193505050501580156103f1573d6000803e3d6000fd5b50565b336001600160a01b037f00000000000000000000000000000000000000000000000000000000000000001614806104535750336001600160a01b037f000000000000000000000000000000000000000000000000000000000000000016145b6104b85760405162461bcd60e51b815260206004820152603060248201527f4f6e6c792074656e616e74206f72206c616e646c6f72642063616e207465726d60448201526f1a5b985d1948184818dbdb9d1c9858dd60821b6064820152608401610350565b6001600160a01b037f0000000000000000000000000000000000000000000000000000000000000000163303610543576040516001600160a01b037f000000000000000000000000000000000000000000000000000000000000000016904780156108fc02916000818181858888f1935050505015801561053d573d6000803e3d6000fd5b50610609565b7f000000000000000000000000000000000000000000000000000000000000000034146105b25760405162461bcd60e51b815260206004820181905260248201527f4c616e646c6f72642073686f756c642070617920636f6d70656e736174696f6e6044820152606401610350565b6040516001600160a01b037f000000000000000000000000000000000000000000000000000000000000000016904780156108fc02916000818181858888f19350505050158015610607573d6000803e3d6000fd5b505b600280546003919060ff19166001835b0217905550565b6002805460ff16600381111561063857610638610d77565b146106555760405162461bcd60e51b815260040161035090610db5565b60007f00000000000000000000000000000000000000000000000000000000000000006001546106859190610e1b565b905060006106968262278d00610e3d565b6000546106a39042610e54565b6106ad9190610e54565b905062278d0081116106fa5760405162461bcd60e51b8152602060048201526016602482015275139bc81d1a5b59481bdd5d081bd9881c185e5b595b9d60521b6044820152606401610350565b600060647f00000000000000000000000000000000000000000000000000000000000000007f00000000000000000000000000000000000000000000000000000000000000006201518061075162278d0087610e54565b61075b9190610e1b565b6107659190610e3d565b61076f9190610e3d565b6107799190610e1b565b9050478111156107865750475b6040516001600160a01b037f0000000000000000000000000000000000000000000000000000000000000000169082156108fc029083906000818181858888f193505050501580156107dc573d6000803e3d6000fd5b50505050565b600060025460ff1660038111156107fb576107fb610d77565b146108525760405162461bcd60e51b815260206004820152602160248201527f436f6e74726163742073686f756c6420626520696e20496e69742073746174756044820152607360f81b6064820152608401610350565b336001600160a01b037f000000000000000000000000000000000000000000000000000000000000000016146108d45760405162461bcd60e51b815260206004820152602160248201527f4f6e6c79206c616e646c6f72642063616e2061636365707420636f6e747261636044820152601d60fa1b6064820152608401610350565b600280546000919060ff1916600183610619565b6002805460ff16600381111561090057610900610d77565b1461091d5760405162461bcd60e51b815260040161035090610db5565b336001600160a01b037f000000000000000000000000000000000000000000000000000000000000000016146109955760405162461bcd60e51b815260206004820152601860248201527f4f6e6c792074656e616e742063616e207061792072656e7400000000000000006044820152606401610350565b7f000000000000000000000000000000000000000000000000000000000000000034146109fc5760405162461bcd60e51b8152602060048201526015602482015274125b98dbdc9c9958dd081c995b9d08185b5bdd5b9d605a1b6044820152606401610350565b610a467f00000000000000000000000000000000000000000000000000000000000000007f0000000000000000000000000000000000000000000000000000000000000000610e02565b471015610aa75760405162461bcd60e51b815260206004820152602960248201527f5365637572697479204465706f7369742073686f756c6420626520616c7761796044820152681cc81c1c995cd95b9d60ba1b6064820152608401610350565b7f000000000000000000000000000000000000000000000000000000000000000060016000828254610ad99190610e02565b90915550506040516001600160a01b037f000000000000000000000000000000000000000000000000000000000000000016907f000000000000000000000000000000000000000000000000000000000000000080156108fc02916000818181858888f193505050501580156103f1573d6000803e3d6000fd5b600160025460ff166003811115610b6c57610b6c610d77565b14610bb95760405162461bcd60e51b815260206004820152601a60248201527f436f6e74726163742073686f756c642062652070656e64696e670000000000006044820152606401610350565b336001600160a01b037f00000000000000000000000000000000000000000000000000000000000000001614610c315760405162461bcd60e51b815260206004820152601e60248201527f4f6e6c792074656e616e742063616e20616365707420636f6e747261637400006044820152606401610350565b610c7b7f00000000000000000000000000000000000000000000000000000000000000007f0000000000000000000000000000000000000000000000000000000000000000610e02565b3414610cef5760405162461bcd60e51b815260206004820152603760248201527f54656e616e742073686f756c64206465706f73697420646f776e5061796d656e60448201527f7420706c7573206669727374206d6f6e74682072656e740000000000000000006064820152608401610350565b6040516001600160a01b037f000000000000000000000000000000000000000000000000000000000000000016907f000000000000000000000000000000000000000000000000000000000000000080156108fc02916000818181858888f19350505050158015610d64573d6000803e3d6000fd5b506002805460ff19168117905542600055565b634e487b7160e01b600052602160045260246000fd5b6020810160048310610daf57634e487b7160e01b600052602160045260246000fd5b91905290565b6020808252601a908201527f436f6e74726163742073686f756c642062652061636570746564000000000000604082015260600190565b634e487b7160e01b600052601160045260246000fd5b80820180821115610e1557610e15610dec565b92915050565b600082610e3857634e487b7160e01b600052601260045260246000fd5b500490565b8082028115828204841417610e1557610e15610dec565b81810381811115610e1557610e15610dec56fea26469706673582212209fcf9c01882aec8e48cb3d55ed9fb5c815090ac6858cb4e189763b6bb9b6b10864736f6c63430008130033",
          "opcodes": "PUSH2 0x160 PUSH1 0x40 MSTORE CALLVALUE DUP1 ISZERO PUSH2 0x11 JUMPI PUSH1 0x0 DUP1 REVERT JUMPDEST POP PUSH1 0x40 MLOAD PUSH2 0x1086 CODESIZE SUB DUP1 PUSH2 0x1086 DUP4 CODECOPY DUP2 ADD PUSH1 0x40 DUP2 SWAP1 MSTORE PUSH2 0x30 SWAP2 PUSH2 0x7E JUMP JUMPDEST PUSH1 0x1 PUSH1 0x1 PUSH1 0xA0 SHL SUB SWAP7 DUP8 AND PUSH1 0x80 MSTORE SWAP5 SWAP1 SWAP6 AND PUSH1 0xA0 MSTORE PUSH1 0xC0 SWAP3 SWAP1 SWAP3 MSTORE PUSH1 0xE0 MSTORE PUSH2 0x100 MSTORE PUSH2 0x120 SWAP2 SWAP1 SWAP2 MSTORE PUSH2 0x140 MSTORE PUSH2 0xE0 JUMP JUMPDEST DUP1 MLOAD PUSH1 0x1 PUSH1 0x1 PUSH1 0xA0 SHL SUB DUP2 AND DUP2 EQ PUSH2 0x79 JUMPI PUSH1 0x0 DUP1 REVERT JUMPDEST SWAP2 SWAP1 POP JUMP JUMPDEST PUSH1 0x0 DUP1 PUSH1 0x0 DUP1 PUSH1 0x0 DUP1 PUSH1 0x0 PUSH1 0xE0 DUP9 DUP11 SUB SLT ISZERO PUSH2 0x99 JUMPI PUSH1 0x0 DUP1 REVERT JUMPDEST PUSH2 0xA2 DUP9 PUSH2 0x62 JUMP JUMPDEST SWAP7 POP PUSH2 0xB0 PUSH1 0x20 DUP10 ADD PUSH2 0x62 JUMP JUMPDEST PUSH1 0x40 DUP10 ADD MLOAD PUSH1 0x60 DUP11 ADD MLOAD PUSH1 0x80 DUP12 ADD MLOAD PUSH1 0xA0 DUP13 ADD MLOAD PUSH1 0xC0 SWAP1 SWAP13 ADD MLOAD SWAP11 SWAP14 SWAP4 SWAP13 POP SWAP2 SWAP11 SWAP1 SWAP10 SWAP2 SWAP9 POP SWAP7 POP SWAP5 POP SWAP3 POP POP POP JUMP JUMPDEST PUSH1 0x80 MLOAD PUSH1 0xA0 MLOAD PUSH1 0xC0 MLOAD PUSH1 0xE0 MLOAD PUSH2 0x100 MLOAD PUSH2 0x120 MLOAD PUSH2 0x140 MLOAD PUSH2 0xE9D PUSH2 0x1E9 PUSH1 0x0 CODECOPY PUSH1 0x0 DUP2 DUP2 PUSH2 0x159 ADD MSTORE PUSH2 0x545 ADD MSTORE PUSH1 0x0 DUP2 DUP2 PUSH2 0x18D ADD MSTORE PUSH2 0x700 ADD MSTORE PUSH1 0x0 DUP2 DUP2 PUSH2 0x21F ADD MSTORE PUSH2 0x35B ADD MSTORE PUSH1 0x0 DUP2 DUP2 PUSH2 0x2F9 ADD MSTORE DUP2 DUP2 PUSH2 0x659 ADD MSTORE DUP2 DUP2 PUSH2 0x721 ADD MSTORE DUP2 DUP2 PUSH2 0x997 ADD MSTORE DUP2 DUP2 PUSH2 0xA22 ADD MSTORE DUP2 DUP2 PUSH2 0xAA9 ADD MSTORE DUP2 DUP2 PUSH2 0xB0E ADD MSTORE DUP2 DUP2 PUSH2 0xC36 ADD MSTORE PUSH2 0xD1F ADD MSTORE PUSH1 0x0 DUP2 DUP2 PUSH2 0x1C1 ADD MSTORE DUP2 DUP2 PUSH2 0xA01 ADD MSTORE PUSH2 0xC57 ADD MSTORE PUSH1 0x0 DUP2 DUP2 PUSH2 0x25B ADD MSTORE DUP2 DUP2 PUSH2 0x3A9 ADD MSTORE DUP2 DUP2 PUSH2 0x3FF ADD MSTORE DUP2 DUP2 PUSH2 0x4C2 ADD MSTORE DUP2 DUP2 PUSH2 0x5BF ADD MSTORE DUP2 DUP2 PUSH2 0x928 ADD MSTORE PUSH2 0xBC4 ADD MSTORE PUSH1 0x0 DUP2 DUP2 PUSH2 0x2C5 ADD MSTORE DUP2 DUP2 PUSH2 0x431 ADD MSTORE DUP2 DUP2 PUSH2 0x4F5 ADD MSTORE DUP2 DUP2 PUSH2 0x793 ADD MSTORE DUP2 DUP2 PUSH2 0x85D ADD MSTORE DUP2 DUP2 PUSH2 0xAEB ADD MSTORE PUSH2 0xCFC ADD MSTORE PUSH2 0xE9D PUSH1 0x0 RETURN INVALID PUSH1 0x80 PUSH1 0x40 MSTORE PUSH1 0x4 CALLDATASIZE LT PUSH2 0xE8 JUMPI PUSH1 0x0 CALLDATALOAD PUSH1 0xE0 SHR DUP1 PUSH4 0x7B1CF291 GT PUSH2 0x8A JUMPI DUP1 PUSH4 0xB3BB6664 GT PUSH2 0x59 JUMPI DUP1 PUSH4 0xB3BB6664 EQ PUSH2 0x295 JUMPI DUP1 PUSH4 0xBC579103 EQ PUSH2 0x29D JUMPI DUP1 PUSH4 0xDC1997EA EQ PUSH2 0x2B3 JUMPI DUP1 PUSH4 0xE4CBECDF EQ PUSH2 0x2E7 JUMPI PUSH1 0x0 DUP1 REVERT JUMPDEST DUP1 PUSH4 0x7B1CF291 EQ PUSH2 0x1F8 JUMPI DUP1 PUSH4 0x8C4B8475 EQ PUSH2 0x20D JUMPI DUP1 PUSH4 0xA709C4FE EQ PUSH2 0x241 JUMPI DUP1 PUSH4 0xADF07791 EQ PUSH2 0x249 JUMPI PUSH1 0x0 DUP1 REVERT JUMPDEST DUP1 PUSH4 0x40D5FF58 GT PUSH2 0xC6 JUMPI DUP1 PUSH4 0x40D5FF58 EQ PUSH2 0x147 JUMPI DUP1 PUSH4 0x56D88631 EQ PUSH2 0x17B JUMPI DUP1 PUSH4 0x56F50473 EQ PUSH2 0x1AF JUMPI DUP1 PUSH4 0x75927705 EQ PUSH2 0x1E3 JUMPI PUSH1 0x0 DUP1 REVERT JUMPDEST DUP1 PUSH4 0xB97BC86 EQ PUSH2 0xED JUMPI DUP1 PUSH4 0x200D2ED2 EQ PUSH2 0x116 JUMPI DUP1 PUSH4 0x2FD949CA EQ PUSH2 0x13D JUMPI JUMPDEST PUSH1 0x0 DUP1 REVERT JUMPDEST CALLVALUE DUP1 ISZERO PUSH2 0xF9 JUMPI PUSH1 0x0 DUP1 REVERT JUMPDEST POP PUSH2 0x103 PUSH1 0x0 SLOAD DUP2 JUMP JUMPDEST PUSH1 0x40 MLOAD SWAP1 DUP2 MSTORE PUSH1 0x20 ADD JUMPDEST PUSH1 0x40 MLOAD DUP1 SWAP2 SUB SWAP1 RETURN JUMPDEST CALLVALUE DUP1 ISZERO PUSH2 0x122 JUMPI PUSH1 0x0 DUP1 REVERT JUMPDEST POP PUSH1 0x2 SLOAD PUSH2 0x130 SWAP1 PUSH1 0xFF AND DUP2 JUMP JUMPDEST PUSH1 0x40 MLOAD PUSH2 0x10D SWAP2 SWAP1 PUSH2 0xD8D JUMP JUMPDEST PUSH2 0x145 PUSH2 0x31B JUMP JUMPDEST STOP JUMPDEST CALLVALUE DUP1 ISZERO PUSH2 0x153 JUMPI PUSH1 0x0 DUP1 REVERT JUMPDEST POP PUSH2 0x103 PUSH32 0x0 DUP2 JUMP JUMPDEST CALLVALUE DUP1 ISZERO PUSH2 0x187 JUMPI PUSH1 0x0 DUP1 REVERT JUMPDEST POP PUSH2 0x103 PUSH32 0x0 DUP2 JUMP JUMPDEST CALLVALUE DUP1 ISZERO PUSH2 0x1BB JUMPI PUSH1 0x0 DUP1 REVERT JUMPDEST POP PUSH2 0x103 PUSH32 0x0 DUP2 JUMP JUMPDEST CALLVALUE DUP1 ISZERO PUSH2 0x1EF JUMPI PUSH1 0x0 DUP1 REVERT JUMPDEST POP PUSH2 0x145 PUSH2 0x620 JUMP JUMPDEST CALLVALUE DUP1 ISZERO PUSH2 0x204 JUMPI PUSH1 0x0 DUP1 REVERT JUMPDEST POP PUSH2 0x145 PUSH2 0x7E2 JUMP JUMPDEST CALLVALUE DUP1 ISZERO PUSH2 0x219 JUMPI PUSH1 0x0 DUP1 REVERT JUMPDEST POP PUSH2 0x103 PUSH32 0x0 DUP2 JUMP JUMPDEST PUSH2 0x145 PUSH2 0x8E8 JUMP JUMPDEST CALLVALUE DUP1 ISZERO PUSH2 0x255 JUMPI PUSH1 0x0 DUP1 REVERT JUMPDEST POP PUSH2 0x27D PUSH32 0x0 DUP2 JUMP JUMPDEST PUSH1 0x40 MLOAD PUSH1 0x1 PUSH1 0x1 PUSH1 0xA0 SHL SUB SWAP1 SWAP2 AND DUP2 MSTORE PUSH1 0x20 ADD PUSH2 0x10D JUMP JUMPDEST PUSH2 0x145 PUSH2 0xB53 JUMP JUMPDEST CALLVALUE DUP1 ISZERO PUSH2 0x2A9 JUMPI PUSH1 0x0 DUP1 REVERT JUMPDEST POP PUSH2 0x103 PUSH1 0x1 SLOAD DUP2 JUMP JUMPDEST CALLVALUE DUP1 ISZERO PUSH2 0x2BF JUMPI PUSH1 0x0 DUP1 REVERT JUMPDEST POP PUSH2 0x27D PUSH32 0x0 DUP2 JUMP JUMPDEST CALLVALUE DUP1 ISZERO PUSH2 0x2F3 JUMPI PUSH1 0x0 DUP1 REVERT JUMPDEST POP PUSH2 0x103 PUSH32 0x0 DUP2 JUMP JUMPDEST PUSH1 0x2 DUP1 SLOAD PUSH1 0xFF AND PUSH1 0x3 DUP2 GT ISZERO PUSH2 0x333 JUMPI PUSH2 0x333 PUSH2 0xD77 JUMP JUMPDEST EQ PUSH2 0x359 JUMPI PUSH1 0x40 MLOAD PUSH3 0x461BCD PUSH1 0xE5 SHL DUP2 MSTORE PUSH1 0x4 ADD PUSH2 0x350 SWAP1 PUSH2 0xDB5 JUMP JUMPDEST PUSH1 0x40 MLOAD DUP1 SWAP2 SUB SWAP1 REVERT JUMPDEST PUSH32 0x0 PUSH1 0x0 SLOAD PUSH2 0x387 SWAP2 SWAP1 PUSH2 0xE02 JUMP JUMPDEST TIMESTAMP LT PUSH2 0x3F4 JUMPI PUSH1 0x2 DUP1 SLOAD PUSH1 0x3 PUSH1 0xFF NOT SWAP1 SWAP2 AND OR SWAP1 SSTORE PUSH1 0x40 MLOAD PUSH1 0x1 PUSH1 0x1 PUSH1 0xA0 SHL SUB PUSH32 0x0 AND SWAP1 SELFBALANCE DUP1 ISZERO PUSH2 0x8FC MUL SWAP2 PUSH1 0x0 DUP2 DUP2 DUP2 DUP6 DUP9 DUP9 CALL SWAP4 POP POP POP POP ISZERO DUP1 ISZERO PUSH2 0x3F1 JUMPI RETURNDATASIZE PUSH1 0x0 DUP1 RETURNDATACOPY RETURNDATASIZE PUSH1 0x0 REVERT JUMPDEST POP JUMP JUMPDEST CALLER PUSH1 0x1 PUSH1 0x1 PUSH1 0xA0 SHL SUB PUSH32 0x0 AND EQ DUP1 PUSH2 0x453 JUMPI POP CALLER PUSH1 0x1 PUSH1 0x1 PUSH1 0xA0 SHL SUB PUSH32 0x0 AND EQ JUMPDEST PUSH2 0x4B8 JUMPI PUSH1 0x40 MLOAD PUSH3 0x461BCD PUSH1 0xE5 SHL DUP2 MSTORE PUSH1 0x20 PUSH1 0x4 DUP3 ADD MSTORE PUSH1 0x30 PUSH1 0x24 DUP3 ADD MSTORE PUSH32 0x4F6E6C792074656E616E74206F72206C616E646C6F72642063616E207465726D PUSH1 0x44 DUP3 ADD MSTORE PUSH16 0x1A5B985D1948184818DBDB9D1C9858DD PUSH1 0x82 SHL PUSH1 0x64 DUP3 ADD MSTORE PUSH1 0x84 ADD PUSH2 0x350 JUMP JUMPDEST PUSH1 0x1 PUSH1 0x1 PUSH1 0xA0 SHL SUB PUSH32 0x0 AND CALLER SUB PUSH2 0x543 JUMPI PUSH1 0x40 MLOAD PUSH1 0x1 PUSH1 0x1 PUSH1 0xA0 SHL SUB PUSH32 0x0 AND SWAP1 SELFBALANCE DUP1 ISZERO PUSH2 0x8FC MUL SWAP2 PUSH1 0x0 DUP2 DUP2 DUP2 DUP6 DUP9 DUP9 CALL SWAP4 POP POP POP POP ISZERO DUP1 ISZERO PUSH2 0x53D JUMPI RETURNDATASIZE PUSH1 0x0 DUP1 RETURNDATACOPY RETURNDATASIZE PUSH1 0x0 REVERT JUMPDEST POP PUSH2 0x609 JUMP JUMPDEST PUSH32 0x0 CALLVALUE EQ PUSH2 0x5B2 JUMPI PUSH1 0x40 MLOAD PUSH3 0x461BCD PUSH1 0xE5 SHL DUP2 MSTORE PUSH1 0x20 PUSH1 0x4 DUP3 ADD DUP2 SWAP1 MSTORE PUSH1 0x24 DUP3 ADD MSTORE PUSH32 0x4C616E646C6F72642073686F756C642070617920636F6D70656E736174696F6E PUSH1 0x44 DUP3 ADD MSTORE PUSH1 0x64 ADD PUSH2 0x350 JUMP JUMPDEST PUSH1 0x40 MLOAD PUSH1 0x1 PUSH1 0x1 PUSH1 0xA0 SHL SUB PUSH32 0x0 AND SWAP1 SELFBALANCE DUP1 ISZERO PUSH2 0x8FC MUL SWAP2 PUSH1 0x0 DUP2 DUP2 DUP2 DUP6 DUP9 DUP9 CALL SWAP4 POP POP POP POP ISZERO DUP1 ISZERO PUSH2 0x607 JUMPI RETURNDATASIZE PUSH1 0x0 DUP1 RETURNDATACOPY RETURNDATASIZE PUSH1 0x0 REVERT JUMPDEST POP JUMPDEST PUSH1 0x2 DUP1 SLOAD PUSH1 0x3 SWAP2 SWAP1 PUSH1 0xFF NOT AND PUSH1 0x1 DUP4 JUMPDEST MUL OR SWAP1 SSTORE POP JUMP JUMPDEST PUSH1 0x2 DUP1 SLOAD PUSH1 0xFF AND PUSH1 0x3 DUP2 GT ISZERO PUSH2 0x638 JUMPI PUSH2 0x638 PUSH2 0xD77 JUMP JUMPDEST EQ PUSH2 0x655 JUMPI PUSH1 0x40 MLOAD PUSH3 0x461BCD PUSH1 0xE5 SHL DUP2 MSTORE PUSH1 0x4 ADD PUSH2 0x350 SWAP1 PUSH2 0xDB5 JUMP JUMPDEST PUSH1 0x0 PUSH32 0x0 PUSH1 0x1 SLOAD PUSH2 0x685 SWAP2 SWAP1 PUSH2 0xE1B JUMP JUMPDEST SWAP1 POP PUSH1 0x0 PUSH2 0x696 DUP3 PUSH3 0x278D00 PUSH2 0xE3D JUMP JUMPDEST PUSH1 0x0 SLOAD PUSH2 0x6A3 SWAP1 TIMESTAMP PUSH2 0xE54 JUMP JUMPDEST PUSH2 0x6AD SWAP2 SWAP1 PUSH2 0xE54 JUMP JUMPDEST SWAP1 POP PUSH3 0x278D00 DUP2 GT PUSH2 0x6FA JUMPI PUSH1 0x40 MLOAD PUSH3 0x461BCD PUSH1 0xE5 SHL DUP2 MSTORE PUSH1 0x20 PUSH1 0x4 DUP3 ADD MSTORE PUSH1 0x16 PUSH1 0x24 DUP3 ADD MSTORE PUSH22 0x139BC81D1A5B59481BDD5D081BD9881C185E5B595B9D PUSH1 0x52 SHL PUSH1 0x44 DUP3 ADD MSTORE PUSH1 0x64 ADD PUSH2 0x350 JUMP JUMPDEST PUSH1 0x0 PUSH1 0x64 PUSH32 0x0 PUSH32 0x0 PUSH3 0x15180 PUSH2 0x751 PUSH3 0x278D00 DUP8 PUSH2 0xE54 JUMP JUMPDEST PUSH2 0x75B SWAP2 SWAP1 PUSH2 0xE1B JUMP JUMPDEST PUSH2 0x765 SWAP2 SWAP1 PUSH2 0xE3D JUMP JUMPDEST PUSH2 0x76F SWAP2 SWAP1 PUSH2 0xE3D JUMP JUMPDEST PUSH2 0x779 SWAP2 SWAP1 PUSH2 0xE1B JUMP JUMPDEST SWAP1 POP SELFBALANCE DUP2 GT ISZERO PUSH2 0x786 JUMPI POP SELFBALANCE JUMPDEST PUSH1 0x40 MLOAD PUSH1 0x1 PUSH1 0x1 PUSH1 0xA0 SHL SUB PUSH32 0x0 AND SWAP1 DUP3 ISZERO PUSH2 0x8FC MUL SWAP1 DUP4 SWAP1 PUSH1 0x0 DUP2 DUP2 DUP2 DUP6 DUP9 DUP9 CALL SWAP4 POP POP POP POP ISZERO DUP1 ISZERO PUSH2 0x7DC JUMPI RETURNDATASIZE PUSH1 0x0 DUP1 RETURNDATACOPY RETURNDATASIZE PUSH1 0x0 REVERT JUMPDEST POP POP POP POP JUMP JUMPDEST PUSH1 0x0 PUSH1 0x2 SLOAD PUSH1 0xFF AND PUSH1 0x3 DUP2 GT ISZERO PUSH2 0x7FB JUMPI PUSH2 0x7FB PUSH2 0xD77 JUMP JUMPDEST EQ PUSH2 0x852 JUMPI PUSH1 0x40 MLOAD PUSH3 0x461BCD PUSH1 0xE5 SHL DUP2 MSTORE PUSH1 0x20 PUSH1 0x4 DUP3 ADD MSTORE PUSH1 0x21 PUSH1 0x24 DUP3 ADD MSTORE PUSH32 0x436F6E74726163742073686F756C6420626520696E20496E6974207374617475 PUSH1 0x44 DUP3 ADD MSTORE PUSH1 0x73 PUSH1 0xF8 SHL PUSH1 0x64 DUP3 ADD MSTORE PUSH1 0x84 ADD PUSH2 0x350 JUMP JUMPDEST CALLER PUSH1 0x1 PUSH1 0x1 PUSH1 0xA0 SHL SUB PUSH32 0x0 AND EQ PUSH2 0x8D4 JUMPI PUSH1 0x40 MLOAD PUSH3 0x461BCD PUSH1 0xE5 SHL DUP2 MSTORE PUSH1 0x20 PUSH1 0x4 DUP3 ADD MSTORE PUSH1 0x21 PUSH1 0x24 DUP3 ADD MSTORE PUSH32 0x4F6E6C79206C616E646C6F72642063616E2061636365707420636F6E74726163 PUSH1 0x44 DUP3 ADD MSTORE PUSH1 0x1D PUSH1 0xFA SHL PUSH1 0x64 DUP3 ADD MSTORE PUSH1 0x84 ADD PUSH2 0x350 JUMP JUMPDEST PUSH1 0x2 DUP1 SLOAD PUSH1 0x0 SWAP2 SWAP1 PUSH1 0xFF NOT AND PUSH1 0x1 DUP4 PUSH2 0x619 JUMP JUMPDEST PUSH1 0x2 DUP1 SLOAD PUSH1 0xFF AND PUSH1 0x3 DUP2 GT ISZERO PUSH2 0x900 JUMPI PUSH2 0x900 PUSH2 0xD77 JUMP JUMPDEST EQ PUSH2 0x91D JUMPI PUSH1 0x40 MLOAD PUSH3 0x461BCD PUSH1 0xE5 SHL DUP2 MSTORE PUSH1 0x4 ADD PUSH2 0x350 SWAP1 PUSH2 0xDB5 JUMP JUMPDEST CALLER PUSH1 0x1 PUSH1 0x1 PUSH1 0xA0 SHL SUB PUSH32 0x0 AND EQ PUSH2 0x995 JUMPI PUSH1 0x40 MLOAD PUSH3 0x461BCD PUSH1 0xE5 SHL DUP2 MSTORE PUSH1 0x20 PUSH1 0x4 DUP3 ADD MSTORE PUSH1 0x18 PUSH1 0x24 DUP3 ADD MSTORE PUSH32 0x4F6E6C792074656E616E742063616E207061792072656E740000000000000000 PUSH1 0x44 DUP3 ADD MSTORE PUSH1 0x64 ADD PUSH2 0x350 JUMP JUMPDEST PUSH32 0x0 CALLVALUE EQ PUSH2 0x9FC JUMPI PUSH1 0x40 MLOAD PUSH3 0x461BCD PUSH1 0xE5 SHL DUP2 MSTORE PUSH1 0x20 PUSH1 0x4 DUP3 ADD MSTORE PUSH1 0x15 PUSH1 0x24 DUP3 ADD MSTORE PUSH21 0x125B98DBDC9C9958DD081C995B9D08185B5BDD5B9D PUSH1 0x5A SHL PUSH1 0x44 DUP3 ADD MSTORE PUSH1 0x64 ADD PUSH2 0x350 JUMP JUMPDEST PUSH2 0xA46 PUSH32 0x0 PUSH32 0x0 PUSH2 0xE02 JUMP JUMPDEST SELFBALANCE LT ISZERO PUSH2 0xAA7 JUMPI PUSH1 0x40 MLOAD PUSH3 0x461BCD PUSH1 0xE5 SHL DUP2 MSTORE PUSH1 0x20 PUSH1 0x4 DUP3 ADD MSTORE PUSH1 0x29 PUSH1 0x24 DUP3 ADD MSTORE PUSH32 0x5365637572697479204465706F7369742073686F756C6420626520616C776179 PUSH1 0x44 DUP3 ADD MSTORE PUSH9 0x1CC81C1C995CD95B9D PUSH1 0xBA SHL PUSH1 0x64 DUP3 ADD MSTORE PUSH1 0x84 ADD PUSH2 0x350 JUMP JUMPDEST PUSH32 0x0 PUSH1 0x1 PUSH1 0x0 DUP3 DUP3 SLOAD PUSH2 0xAD9 SWAP2 SWAP1 PUSH2 0xE02 JUMP JUMPDEST SWAP1 SWAP2 SSTORE POP POP PUSH1 0x40 MLOAD PUSH1 0x1 PUSH1 0x1 PUSH1 0xA0 SHL SUB PUSH32 0x0 AND SWAP1 PUSH32 0x0 DUP1 ISZERO PUSH2 0x8FC MUL SWAP2 PUSH1 0x0 DUP2 DUP2 DUP2 DUP6 DUP9 DUP9 CALL SWAP4 POP POP POP POP ISZERO DUP1 ISZERO PUSH2 0x3F1 JUMPI RETURNDATASIZE PUSH1 0x0 DUP1 RETURNDATACOPY RETURNDATASIZE PUSH1 0x0 REVERT JUMPDEST PUSH1 0x1 PUSH1 0x2 SLOAD PUSH1 0xFF AND PUSH1 0x3 DUP2 GT ISZERO PUSH2 0xB6C JUMPI PUSH2 0xB6C PUSH2 0xD77 JUMP JUMPDEST EQ PUSH2 0xBB9 JUMPI PUSH1 0x40 MLOAD PUSH3 0x461BCD PUSH1 0xE5 SHL DUP2 MSTORE PUSH1 0x20 PUSH1 0x4 DUP3 ADD MSTORE PUSH1 0x1A PUSH1 0x24 DUP3 ADD MSTORE PUSH32 0x436F6E74726163742073686F756C642062652070656E64696E67000000000000 PUSH1 0x44 DUP3 ADD MSTORE PUSH1 0x64 ADD PUSH2 0x350 JUMP JUMPDEST CALLER PUSH1 0x1 PUSH1 0x1 PUSH1 0xA0 SHL SUB PUSH32 0x0 AND EQ PUSH2 0xC31 JUMPI PUSH1 0x40 MLOAD PUSH3 0x461BCD PUSH1 0xE5 SHL DUP2 MSTORE PUSH1 0x20 PUSH1 0x4 DUP3 ADD MSTORE PUSH1 0x1E PUSH1 0x24 DUP3 ADD MSTORE PUSH32 0x4F6E6C792074656E616E742063616E20616365707420636F6E74726163740000 PUSH1 0x44 DUP3 ADD MSTORE PUSH1 0x64 ADD PUSH2 0x350 JUMP JUMPDEST PUSH2 0xC7B PUSH32 0x0 PUSH32 0x0 PUSH2 0xE02 JUMP JUMPDEST CALLVALUE EQ PUSH2 0xCEF JUMPI PUSH1 0x40 MLOAD PUSH3 0x461BCD PUSH1 0xE5 SHL DUP2 MSTORE PUSH1 0x20 PUSH1 0x4 DUP3 ADD MSTORE PUSH1 0x37 PUSH1 0x24 DUP3 ADD MSTORE PUSH32 0x54656E616E742073686F756C64206465706F73697420646F776E5061796D656E PUSH1 0x44 DUP3 ADD MSTORE PUSH32 0x7420706C7573206669727374206D6F6E74682072656E74000000000000000000 PUSH1 0x64 DUP3 ADD MSTORE PUSH1 0x84 ADD PUSH2 0x350 JUMP JUMPDEST PUSH1 0x40 MLOAD PUSH1 0x1 PUSH1 0x1 PUSH1 0xA0 SHL SUB PUSH32 0x0 AND SWAP1 PUSH32 0x0 DUP1 ISZERO PUSH2 0x8FC MUL SWAP2 PUSH1 0x0 DUP2 DUP2 DUP2 DUP6 DUP9 DUP9 CALL SWAP4 POP POP POP POP ISZERO DUP1 ISZERO PUSH2 0xD64 JUMPI RETURNDATASIZE PUSH1 0x0 DUP1 RETURNDATACOPY RETURNDATASIZE PUSH1 0x0 REVERT JUMPDEST POP PUSH1 0x2 DUP1 SLOAD PUSH1 0xFF NOT AND DUP2 OR SWAP1 SSTORE TIMESTAMP PUSH1 0x0 SSTORE JUMP JUMPDEST PUSH4 0x4E487B71 PUSH1 0xE0 SHL PUSH1 0x0 MSTORE PUSH1 0x21 PUSH1 0x4 MSTORE PUSH1 0x24 PUSH1 0x0 REVERT JUMPDEST PUSH1 0x20 DUP2 ADD PUSH1 0x4 DUP4 LT PUSH2 0xDAF JUMPI PUSH4 0x4E487B71 PUSH1 0xE0 SHL PUSH1 0x0 MSTORE PUSH1 0x21 PUSH1 0x4 MSTORE PUSH1 0x24 PUSH1 0x0 REVERT JUMPDEST SWAP2 SWAP1 MSTORE SWAP1 JUMP JUMPDEST PUSH1 0x20 DUP1 DUP3 MSTORE PUSH1 0x1A SWAP1 DUP3 ADD MSTORE PUSH32 0x436F6E74726163742073686F756C642062652061636570746564000000000000 PUSH1 0x40 DUP3 ADD MSTORE PUSH1 0x60 ADD SWAP1 JUMP JUMPDEST PUSH4 0x4E487B71 PUSH1 0xE0 SHL PUSH1 0x0 MSTORE PUSH1 0x11 PUSH1 0x4 MSTORE PUSH1 0x24 PUSH1 0x0 REVERT JUMPDEST DUP1 DUP3 ADD DUP1 DUP3 GT ISZERO PUSH2 0xE15 JUMPI PUSH2 0xE15 PUSH2 0xDEC JUMP JUMPDEST SWAP3 SWAP2 POP POP JUMP JUMPDEST PUSH1 0x0 DUP3 PUSH2 0xE38 JUMPI PUSH4 0x4E487B71 PUSH1 0xE0 SHL PUSH1 0x0 MSTORE PUSH1 0x12 PUSH1 0x4 MSTORE PUSH1 0x24 PUSH1 0x0 REVERT JUMPDEST POP DIV SWAP1 JUMP JUMPDEST DUP1 DUP3 MUL DUP2 ISZERO DUP3 DUP3 DIV DUP5 EQ OR PUSH2 0xE15 JUMPI PUSH2 0xE15 PUSH2 0xDEC JUMP JUMPDEST DUP2 DUP2 SUB DUP2 DUP2 GT ISZERO PUSH2 0xE15 JUMPI PUSH2 0xE15 PUSH2 0xDEC JUMP INVALID LOG2 PUSH5 0x6970667358 0x22 SLT KECCAK256 SWAP16 0xCF SWAP13 ADD DUP9 0x2A 0xEC DUP15 BASEFEE 0xCB RETURNDATASIZE SSTORE 0xED SWAP16 0xB5 0xC8 ISZERO MULMOD EXP 0xC6 DUP6 DUP13 0xB4 0xE1 DUP10 PUSH23 0x3B6BB9B6B10864736F6C63430008130033000000000000 ",
          "linkReferences": {}
        },
        "methodIdentifiers": {
          "acceptContractAndStartRental()": "b3bb6664",
          "acceptContractLandLord()": "7b1cf291",
          "compensation()": "40d5ff58",
          "downPayment()": "56f50473",
          "landlord()": "dc1997ea",
          "liquidateDeposit()": "75927705",
          "monthlyRent()": "e4cbecdf",
          "payRent()": "a709c4fe",
          "penaltyInterestRate()": "56d88631",
          "rentalPeriod()": "8c4b8475",
          "startDate()": "0b97bc86",
          "status()": "200d2ed2",
          "tenant()": "adf07791",
          "terminateContract()": "2fd949ca",
          "totalPayed()": "bc579103"
        }
      }
    }
  }
}