{"abi":[{"type":"constructor","inputs":[{"name":"_landlord","type":"address","internalType":"address"},{"name":"_tenant","type":"address","internalType":"address"},{"name":"_securityDeposit","type":"uint256","internalType":"uint256"},{"name":"_monthlyRent","type":"uint256","internalType":"uint256"},{"name":"_leaseTerm","type":"uint256","internalType":"uint256"},{"name":"_lateFeePerDay","type":"uint256","internalType":"uint256"},{"name":"_earlyTerminationFee","type":"uint256","internalType":"uint256"}],"stateMutability":"nonpayable"},{"type":"function","name":"applyLateFee","inputs":[],"outputs":[],"stateMutability":"nonpayable"},{"type":"function","name":"earlyTerminationFee","inputs":[],"outputs":[{"name":"","type":"uint256","internalType":"uint256"}],"stateMutability":"view"},{"type":"function","name":"landlord","inputs":[],"outputs":[{"name":"","type":"address","internalType":"address"}],"stateMutability":"view"},{"type":"function","name":"landlordApproveLease","inputs":[],"outputs":[],"stateMutability":"nonpayable"},{"type":"function","name":"lateFeePerDay","inputs":[],"outputs":[{"name":"","type":"uint256","internalType":"uint256"}],"stateMutability":"view"},{"type":"function","name":"leaseStartDate","inputs":[],"outputs":[{"name":"","type":"uint256","internalType":"uint256"}],"stateMutability":"view"},{"type":"function","name":"leaseTerm","inputs":[],"outputs":[{"name":"","type":"uint256","internalType":"uint256"}],"stateMutability":"view"},{"type":"function","name":"monthlyRent","inputs":[],"outputs":[{"name":"","type":"uint256","internalType":"uint256"}],"stateMutability":"view"},{"type":"function","name":"payRent","inputs":[],"outputs":[],"stateMutability":"payable"},{"type":"function","name":"securityDeposit","inputs":[],"outputs":[{"name":"","type":"uint256","internalType":"uint256"}],"stateMutability":"view"},{"type":"function","name":"status","inputs":[],"outputs":[{"name":"","type":"uint8","internalType":"enum ResidentialLeaseAgreement.Status"}],"stateMutability":"view"},{"type":"function","name":"tenant","inputs":[],"outputs":[{"name":"","type":"address","internalType":"address"}],"stateMutability":"view"},{"type":"function","name":"tenantApproveLease","inputs":[],"outputs":[],"stateMutability":"payable"},{"type":"function","name":"terminateLease","inputs":[],"outputs":[],"stateMutability":"payable"},{"type":"function","name":"totalRentPaid","inputs":[],"outputs":[{"name":"","type":"uint256","internalType":"uint256"}],"stateMutability":"view"}],"bytecode":{"object":"0x61016060405234801561001157600080fd5b50604051610f82380380610f8283398101604081905261003091610088565b6001600160a01b039687166080529490951660a05260c09290925260e0526101005261012091909152610140526002805460ff191690556100ea565b80516001600160a01b038116811461008357600080fd5b919050565b600080600080600080600060e0888a0312156100a357600080fd5b6100ac8861006c565b96506100ba6020890161006c565b604089015160608a015160808b015160a08c015160c0909c01519a9d939c50919a90999198509650945092505050565b60805160a05160c05160e051610100516101205161014051610db96101c9600039600081816101ae01526104e10152600081816101e20152610bbc0152600081816102e701526104220152600081816102b30152818161084301528181610902015281816109e80152610afd015260008181610139015261086401526000818161021e0152818161039a01528181610461015281816104b9015281816105be01528181610751015261094401526000818161027f01528181610368015281816105690152818161062a01528181610a790152610c4f0152610db96000f3fe6080604052600436106100e85760003560e01c806396203dbf1161008a578063dc1997ea11610059578063dc1997ea1461026d578063e4cbecdf146102a1578063e693d624146102d5578063ee0850e41461030957600080fd5b806396203dbf146101d0578063a709c4fe14610204578063adf077911461020c578063d270a1d71461025857600080fd5b80632eeed7d2116100c65780632eeed7d21461016957806330dd03221461017e578063434b0cb5146101945780635c100f831461019c57600080fd5b80631168c9a8146100ed578063200d2ed2146100f7578063220e5ab314610127575b600080fd5b6100f561031f565b005b34801561010357600080fd5b506002546101119060ff1681565b60405161011e9190610cb3565b60405180910390f35b34801561013357600080fd5b5061015b7f000000000000000000000000000000000000000000000000000000000000000081565b60405190815260200161011e565b34801561017557600080fd5b506100f561061f565b34801561018a57600080fd5b5061015b60005481565b6100f5610746565b3480156101a857600080fd5b5061015b7f000000000000000000000000000000000000000000000000000000000000000081565b3480156101dc57600080fd5b5061015b7f000000000000000000000000000000000000000000000000000000000000000081565b6100f5610939565b34801561021857600080fd5b506102407f000000000000000000000000000000000000000000000000000000000000000081565b6040516001600160a01b03909116815260200161011e565b34801561026457600080fd5b506100f5610ac4565b34801561027957600080fd5b506102407f000000000000000000000000000000000000000000000000000000000000000081565b3480156102ad57600080fd5b5061015b7f000000000000000000000000000000000000000000000000000000000000000081565b3480156102e157600080fd5b5061015b7f000000000000000000000000000000000000000000000000000000000000000081565b34801561031557600080fd5b5061015b60015481565b6002805460ff16600381111561033757610337610c9d565b1461035d5760405162461bcd60e51b815260040161035490610cdb565b60405180910390fd5b336001600160a01b037f00000000000000000000000000000000000000000000000000000000000000001614806103bc5750336001600160a01b037f000000000000000000000000000000000000000000000000000000000000000016145b6104205760405162461bcd60e51b815260206004820152602f60248201527f4f6e6c79206c616e646c6f7264206f722074656e616e742063616e207465726d60448201526e696e61746520746865206c6561736560881b6064820152608401610354565b7f000000000000000000000000000000000000000000000000000000000000000060005461044e9190610d1e565b42106104af576040516001600160a01b037f000000000000000000000000000000000000000000000000000000000000000016904780156108fc02916000818181858888f193505050501580156104a9573d6000803e3d6000fd5b50610608565b6001600160a01b037f00000000000000000000000000000000000000000000000000000000000000001633036105b1577f0000000000000000000000000000000000000000000000000000000000000000341461055c5760405162461bcd60e51b815260206004820152602560248201527f54656e616e74206d75737420706179206561726c79207465726d696e6174696f6044820152646e2066656560d81b6064820152608401610354565b6040516001600160a01b037f000000000000000000000000000000000000000000000000000000000000000016904780156108fc02916000818181858888f193505050501580156104a9573d6000803e3d6000fd5b6040516001600160a01b037f000000000000000000000000000000000000000000000000000000000000000016904780156108fc02916000818181858888f19350505050158015610606573d6000803e3d6000fd5b505b600280546003919060ff19166001835b0217905550565b336001600160a01b037f000000000000000000000000000000000000000000000000000000000000000016146106a75760405162461bcd60e51b815260206004820152602760248201527f4f6e6c7920746865206c616e646c6f72642063616e20617070726f766520746860448201526665206c6561736560c81b6064820152608401610354565b600060025460ff1660038111156106c0576106c0610c9d565b146107335760405162461bcd60e51b815260206004820152603760248201527f4c65617365206973206e6f7420696e2074686520636f7272656374207374617460448201527f6520666f72206c616e646c6f726420617070726f76616c0000000000000000006064820152608401610354565b600280546001919060ff19168280610618565b336001600160a01b037f000000000000000000000000000000000000000000000000000000000000000016146107cc5760405162461bcd60e51b815260206004820152602560248201527f4f6e6c79207468652074656e616e742063616e20617070726f766520746865206044820152646c6561736560d81b6064820152608401610354565b600160025460ff1660038111156107e5576107e5610c9d565b1461083e5760405162461bcd60e51b8152602060048201526024808201527f4c65617365206973206e6f742070656e64696e672074656e616e7420617070726044820152631bdd985b60e21b6064820152608401610354565b6108887f00000000000000000000000000000000000000000000000000000000000000007f0000000000000000000000000000000000000000000000000000000000000000610d1e565b34146108fc5760405162461bcd60e51b815260206004820152603b60248201527f54656e616e74206d75737420706179207468652073656375726974792064657060448201527f6f73697420616e64206669727374206d6f6e746827732072656e7400000000006064820152608401610354565b426000557f00000000000000000000000000000000000000000000000000000000000000006001908155600280549091829160ff19169082610618565b336001600160a01b037f000000000000000000000000000000000000000000000000000000000000000016146109b15760405162461bcd60e51b815260206004820152601c60248201527f4f6e6c79207468652074656e616e742063616e207061792072656e74000000006044820152606401610354565b6002805460ff1660038111156109c9576109c9610c9d565b146109e65760405162461bcd60e51b815260040161035490610cdb565b7f00000000000000000000000000000000000000000000000000000000000000003414610a555760405162461bcd60e51b815260206004820152601d60248201527f496e636f72726563742072656e74207061796d656e7420616d6f756e740000006044820152606401610354565b3460016000828254610a679190610d1e565b90915550506040516001600160a01b037f000000000000000000000000000000000000000000000000000000000000000016903480156108fc02916000818181858888f19350505050158015610ac1573d6000803e3d6000fd5b50565b6002805460ff166003811115610adc57610adc610c9d565b14610af95760405162461bcd60e51b815260040161035490610cdb565b60007f0000000000000000000000000000000000000000000000000000000000000000600154610b299190610d37565b610b3490601e610d59565b6201518060005442610b469190610d70565b610b509190610d37565b610b5a9190610d70565b905060038111610bb85760405162461bcd60e51b8152602060048201526024808201527f477261636520706572696f64206f662033206461797320666f72206c617465206044820152631c995b9d60e21b6064820152608401610354565b60007f0000000000000000000000000000000000000000000000000000000000000000610be6600384610d70565b610bf09190610d59565b905080471015610c425760405162461bcd60e51b815260206004820152601f60248201527f496e73756666696369656e742066756e647320666f72206c61746520666565006044820152606401610354565b6040516001600160a01b037f0000000000000000000000000000000000000000000000000000000000000000169082156108fc029083906000818181858888f19350505050158015610c98573d6000803e3d6000fd5b505050565b634e487b7160e01b600052602160045260246000fd5b6020810160048310610cd557634e487b7160e01b600052602160045260246000fd5b91905290565b6020808252601390820152724c65617365206973206e6f742061637469766560681b604082015260600190565b634e487b7160e01b600052601160045260246000fd5b80820180821115610d3157610d31610d08565b92915050565b600082610d5457634e487b7160e01b600052601260045260246000fd5b500490565b8082028115828204841417610d3157610d31610d08565b81810381811115610d3157610d31610d0856fea264697066735822122047aeca422b231a05be759ac6f851e760a756c9e148325f4edc6792e510631a9964736f6c63430008130033","linkReferences":{}},"methodIdentifiers":{"applyLateFee()":"d270a1d7","earlyTerminationFee()":"5c100f83","landlord()":"dc1997ea","landlordApproveLease()":"2eeed7d2","lateFeePerDay()":"96203dbf","leaseStartDate()":"30dd0322","leaseTerm()":"e693d624","monthlyRent()":"e4cbecdf","payRent()":"a709c4fe","securityDeposit()":"220e5ab3","status()":"200d2ed2","tenant()":"adf07791","tenantApproveLease()":"434b0cb5","terminateLease()":"1168c9a8","totalRentPaid()":"ee0850e4"},"id":0}