{"abi":[{"type":"constructor","inputs":[{"name":"_landlord","type":"address","internalType":"address"},{"name":"_tenant","type":"address","internalType":"address"},{"name":"_downPayment","type":"uint256","internalType":"uint256"},{"name":"_monthlyRent","type":"uint256","internalType":"uint256"},{"name":"_rentalPeriod","type":"uint256","internalType":"uint256"},{"name":"_penaltyInterestRate","type":"uint256","internalType":"uint256"},{"name":"_compensation","type":"uint256","internalType":"uint256"}],"stateMutability":"nonpayable"},{"type":"function","name":"acceptContract","inputs":[],"outputs":[],"stateMutability":"payable"},{"type":"function","name":"compensation","inputs":[],"outputs":[{"name":"","type":"uint256","internalType":"uint256"}],"stateMutability":"view"},{"type":"function","name":"downPayment","inputs":[],"outputs":[{"name":"","type":"uint256","internalType":"uint256"}],"stateMutability":"view"},{"type":"function","name":"landlord","inputs":[],"outputs":[{"name":"","type":"address","internalType":"address"}],"stateMutability":"view"},{"type":"function","name":"liquidateDeposit","inputs":[],"outputs":[],"stateMutability":"nonpayable"},{"type":"function","name":"monthlyRent","inputs":[],"outputs":[{"name":"","type":"uint256","internalType":"uint256"}],"stateMutability":"view"},{"type":"function","name":"payRent","inputs":[],"outputs":[],"stateMutability":"payable"},{"type":"function","name":"penaltyInterestRate","inputs":[],"outputs":[{"name":"","type":"uint256","internalType":"uint256"}],"stateMutability":"view"},{"type":"function","name":"rentalPeriod","inputs":[],"outputs":[{"name":"","type":"uint256","internalType":"uint256"}],"stateMutability":"view"},{"type":"function","name":"startDate","inputs":[],"outputs":[{"name":"","type":"uint256","internalType":"uint256"}],"stateMutability":"view"},{"type":"function","name":"status","inputs":[],"outputs":[{"name":"","type":"uint8","internalType":"enum ResidentialLeaseAgreement.Status"}],"stateMutability":"view"},{"type":"function","name":"tenant","inputs":[],"outputs":[{"name":"","type":"address","internalType":"address"}],"stateMutability":"view"},{"type":"function","name":"terminateContract","inputs":[],"outputs":[],"stateMutability":"payable"},{"type":"function","name":"totalPayed","inputs":[],"outputs":[{"name":"","type":"uint256","internalType":"uint256"}],"stateMutability":"view"}],"bytecode":{"object":"0x61016060405234801561001157600080fd5b50604051610ecd380380610ecd8339810160408190526100309161007e565b6001600160a01b039687166080529490951660a05260c09290925260e0526101005261012091909152610140526100e0565b80516001600160a01b038116811461007957600080fd5b919050565b600080600080600080600060e0888a03121561009957600080fd5b6100a288610062565b96506100b060208901610062565b604089015160608a015160808b015160a08c015160c0909c01519a9d939c50919a90999198509650945092505050565b60805160a05160c05160e051610100516101205161014051610cf96101d46000396000818161014e01526105230152600081816101820152610885015260008181610207015261033c0152600081816102d9015281816106d8015281816107de015281816108a6015281816109e101528181610a6c01528181610b290152610b8e0152600081816101b6015281816106f90152610a4b01526000818161024301528181610387015281816103dd015281816104a00152818161059d0152818161066601526109720152600081816102a50152818161040f015281816104d3015281816109180152610b6b0152610cf96000f3fe6080604052600436106100dd5760003560e01c8063759277051161007f578063adf0779111610059578063adf0779114610231578063bc5791031461027d578063dc1997ea14610293578063e4cbecdf146102c757600080fd5b806375927705146101e05780638c4b8475146101f5578063a709c4fe1461022957600080fd5b806340d5ff58116100bb57806340d5ff581461013c57806356d886311461017057806356f50473146101a4578063619d2671146101d857600080fd5b80630b97bc86146100e2578063200d2ed21461010b5780632fd949ca14610132575b600080fd5b3480156100ee57600080fd5b506100f860005481565b6040519081526020015b60405180910390f35b34801561011757600080fd5b506002546101259060ff1681565b6040516101029190610be9565b61013a6102fb565b005b34801561014857600080fd5b506100f87f000000000000000000000000000000000000000000000000000000000000000081565b34801561017c57600080fd5b506100f87f000000000000000000000000000000000000000000000000000000000000000081565b3480156101b057600080fd5b506100f87f000000000000000000000000000000000000000000000000000000000000000081565b61013a6105f5565b3480156101ec57600080fd5b5061013a6107a4565b34801561020157600080fd5b506100f87f000000000000000000000000000000000000000000000000000000000000000081565b61013a610967565b34801561023d57600080fd5b506102657f000000000000000000000000000000000000000000000000000000000000000081565b6040516001600160a01b039091168152602001610102565b34801561028957600080fd5b506100f860015481565b34801561029f57600080fd5b506102657f000000000000000000000000000000000000000000000000000000000000000081565b3480156102d357600080fd5b506100f87f000000000000000000000000000000000000000000000000000000000000000081565b60016002805460ff169081111561031457610314610bd3565b1461033a5760405162461bcd60e51b815260040161033190610c11565b60405180910390fd5b7f00000000000000000000000000000000000000000000000000000000000000006000546103689190610c5e565b42106103d2576002805460ff1916811790556040516001600160a01b037f000000000000000000000000000000000000000000000000000000000000000016904780156108fc02916000818181858888f193505050501580156103cf573d6000803e3d6000fd5b50565b336001600160a01b037f00000000000000000000000000000000000000000000000000000000000000001614806104315750336001600160a01b037f000000000000000000000000000000000000000000000000000000000000000016145b6104965760405162461bcd60e51b815260206004820152603060248201527f4f6e6c792074656e616e74206f72206c616e646c6f72642063616e207465726d60448201526f1a5b985d1948184818dbdb9d1c9858dd60821b6064820152608401610331565b6001600160a01b037f0000000000000000000000000000000000000000000000000000000000000000163303610521576040516001600160a01b037f000000000000000000000000000000000000000000000000000000000000000016904780156108fc02916000818181858888f1935050505015801561051b573d6000803e3d6000fd5b506105e7565b7f000000000000000000000000000000000000000000000000000000000000000034146105905760405162461bcd60e51b815260206004820181905260248201527f4c616e646c6f72642073686f756c642070617920636f6d70656e736174696f6e6044820152606401610331565b6040516001600160a01b037f000000000000000000000000000000000000000000000000000000000000000016904780156108fc02916000818181858888f193505050501580156105e5573d6000803e3d6000fd5b505b6002805460ff191681179055565b60006002805460ff169081111561060e5761060e610bd3565b1461065b5760405162461bcd60e51b815260206004820152601a60248201527f436f6e74726163742073686f756c642062652070656e64696e670000000000006044820152606401610331565b336001600160a01b037f000000000000000000000000000000000000000000000000000000000000000016146106d35760405162461bcd60e51b815260206004820152601e60248201527f4f6e6c792074656e616e742063616e20616365707420636f6e747261637400006044820152606401610331565b61071d7f00000000000000000000000000000000000000000000000000000000000000007f0000000000000000000000000000000000000000000000000000000000000000610c5e565b34146107915760405162461bcd60e51b815260206004820152603760248201527f54656e616e742073686f756c64206465706f73697420646f776e5061796d656e60448201527f7420706c7573206669727374206d6f6e74682072656e740000000000000000006064820152608401610331565b6002805460ff1916600117905542600055565b60016002805460ff16908111156107bd576107bd610bd3565b146107da5760405162461bcd60e51b815260040161033190610c11565b60007f000000000000000000000000000000000000000000000000000000000000000060015461080a9190610c77565b9050600061081b8262278d00610c99565b6000546108289042610cb0565b6108329190610cb0565b905062278d00811161087f5760405162461bcd60e51b8152602060048201526016602482015275139bc81d1a5b59481bdd5d081bd9881c185e5b595b9d60521b6044820152606401610331565b600060647f00000000000000000000000000000000000000000000000000000000000000007f0000000000000000000000000000000000000000000000000000000000000000620151806108d662278d0087610cb0565b6108e09190610c77565b6108ea9190610c99565b6108f49190610c99565b6108fe9190610c77565b90504781111561090b5750475b6040516001600160a01b037f0000000000000000000000000000000000000000000000000000000000000000169082156108fc029083906000818181858888f19350505050158015610961573d6000803e3d6000fd5b50505050565b336001600160a01b037f000000000000000000000000000000000000000000000000000000000000000016146109df5760405162461bcd60e51b815260206004820152601860248201527f4f6e6c792074656e616e742063616e207061792072656e7400000000000000006044820152606401610331565b7f00000000000000000000000000000000000000000000000000000000000000003414610a465760405162461bcd60e51b8152602060048201526015602482015274125b98dbdc9c9958dd081c995b9d08185b5bdd5b9d605a1b6044820152606401610331565b610a907f00000000000000000000000000000000000000000000000000000000000000007f0000000000000000000000000000000000000000000000000000000000000000610c5e565b471015610af15760405162461bcd60e51b815260206004820152602960248201527f5365637572697479204465706f7369742073686f756c6420626520616c7761796044820152681cc81c1c995cd95b9d60ba1b6064820152608401610331565b60016002805460ff1690811115610b0a57610b0a610bd3565b14610b275760405162461bcd60e51b815260040161033190610c11565b7f000000000000000000000000000000000000000000000000000000000000000060016000828254610b599190610c5e565b90915550506040516001600160a01b037f000000000000000000000000000000000000000000000000000000000000000016907f000000000000000000000000000000000000000000000000000000000000000080156108fc02916000818181858888f193505050501580156103cf573d6000803e3d6000fd5b634e487b7160e01b600052602160045260246000fd5b6020810160038310610c0b57634e487b7160e01b600052602160045260246000fd5b91905290565b6020808252601a908201527f436f6e74726163742073686f756c642062652061636570746564000000000000604082015260600190565b634e487b7160e01b600052601160045260246000fd5b80820180821115610c7157610c71610c48565b92915050565b600082610c9457634e487b7160e01b600052601260045260246000fd5b500490565b8082028115828204841417610c7157610c71610c48565b81810381811115610c7157610c71610c4856fea26469706673582212207868696c5fe10ef69ba461e3273251b40fcde245f83580cb31e6fa73ad8c7b7964736f6c63430008130033","linkReferences":{}},"methodIdentifiers":{"acceptContract()":"619d2671","compensation()":"40d5ff58","downPayment()":"56f50473","landlord()":"dc1997ea","liquidateDeposit()":"75927705","monthlyRent()":"e4cbecdf","payRent()":"a709c4fe","penaltyInterestRate()":"56d88631","rentalPeriod()":"8c4b8475","startDate()":"0b97bc86","status()":"200d2ed2","tenant()":"adf07791","terminateContract()":"2fd949ca","totalPayed()":"bc579103"},"id":23}